{
	"data": {
		"bytecode": {
			"linkReferences": {},
			"object": "60806040523480156200001157600080fd5b50604051620017a5380380620017a5833981810160405281019062000037919062000095565b806000806101000a81548173ffffffffffffffffffffffffffffffffffffffff021916908373ffffffffffffffffffffffffffffffffffffffff160217905550506200012e565b6000815190506200008f8162000114565b92915050565b600060208284031215620000ae57620000ad6200010f565b5b6000620000be848285016200007e565b91505092915050565b6000620000d482620000ef565b9050919050565b6000620000e882620000c7565b9050919050565b600073ffffffffffffffffffffffffffffffffffffffff82169050919050565b600080fd5b6200011f81620000db565b81146200012b57600080fd5b50565b611667806200013e6000396000f3fe6080604052600436106100a75760003560e01c806368f14acf1161006457806368f14acf146101a457806375cb2a0e146101cd5780638750745e146101fd578063b71b768d1461023a578063bdf666a414610263578063d6f02142146102a0576100a7565b806320f0672c146100ac5780632e9c58bb146100d557806341e865cb14610100578063456523e2146101295780634956219b1461015257806357c91b951461017b575b600080fd5b3480156100b857600080fd5b506100d360048036038101906100ce9190610e0b565b6102c9565b005b3480156100e157600080fd5b506100ea610360565b6040516100f791906111a2565b60405180910390f35b34801561010c57600080fd5b5061012760048036038101906101229190610d30565b610369565b005b34801561013557600080fd5b50610150600480360381019061014b9190610e0b565b610400565b005b34801561015e57600080fd5b5061017960048036038101906101749190610d30565b610497565b005b34801561018757600080fd5b506101a2600480360381019061019d9190610e7f565b61052e565b005b3480156101b057600080fd5b506101cb60048036038101906101c69190610e0b565b6105cb565b005b6101e760048036038101906101e29190610f0c565b610662565b6040516101f491906111bd565b60405180910390f35b34801561020957600080fd5b50610224600480360381019061021f9190610cdd565b61071d565b6040516102319190611367565b60405180910390f35b34801561024657600080fd5b50610261600480360381019061025c9190610fb5565b6107e0565b005b34801561026f57600080fd5b5061028a60048036038101906102859190610da4565b61086e565b60405161029791906111a2565b60405180910390f35b3480156102ac57600080fd5b506102c760048036038101906102c29190610fb5565b61092c565b005b60008054906101000a900473ffffffffffffffffffffffffffffffffffffffff1673ffffffffffffffffffffffffffffffffffffffff166320f0672c858585856040518563ffffffff1660e01b81526004016103289493929190611294565b600060405180830381600087803b15801561034257600080fd5b505af1158015610356573d6000803e3d6000fd5b5050505050505050565b60006001905090565b60008054906101000a900473ffffffffffffffffffffffffffffffffffffffff1673ffffffffffffffffffffffffffffffffffffffff166341e865cb858585856040518563ffffffff1660e01b81526004016103c8949392919061120f565b600060405180830381600087803b1580156103e257600080fd5b505af11580156103f6573d6000803e3d6000fd5b5050505050505050565b60008054906101000a900473ffffffffffffffffffffffffffffffffffffffff1673ffffffffffffffffffffffffffffffffffffffff1663456523e2858585856040518563ffffffff1660e01b815260040161045f9493929190611294565b600060405180830381600087803b15801561047957600080fd5b505af115801561048d573d6000803e3d6000fd5b5050505050505050565b60008054906101000a900473ffffffffffffffffffffffffffffffffffffffff1673ffffffffffffffffffffffffffffffffffffffff16634956219b858585856040518563ffffffff1660e01b81526004016104f6949392919061120f565b600060405180830381600087803b15801561051057600080fd5b505af1158015610524573d6000803e3d6000fd5b5050505050505050565b60008054906101000a900473ffffffffffffffffffffffffffffffffffffffff1673ffffffffffffffffffffffffffffffffffffffff166357c91b958787878787876040518763ffffffff1660e01b8152600401610591969594939291906112d4565b600060405180830381600087803b1580156105ab57600080fd5b505af11580156105bf573d6000803e3d6000fd5b50505050505050505050565b60008054906101000a900473ffffffffffffffffffffffffffffffffffffffff1673ffffffffffffffffffffffffffffffffffffffff166368f14acf858585856040518563ffffffff1660e01b815260040161062a9493929190611294565b600060405180830381600087803b15801561064457600080fd5b505af1158015610658573d6000803e3d6000fd5b5050505050505050565b60008060009054906101000a900473ffffffffffffffffffffffffffffffffffffffff1673ffffffffffffffffffffffffffffffffffffffff166375cb2a0e8585856040518463ffffffff1660e01b81526004016106c293929190611335565b602060405180830381600087803b1580156106dc57600080fd5b505af11580156106f0573d6000803e3d6000fd5b505050506040513d601f19601f820116820180604052508101906107149190610cb0565b90509392505050565b6107256109ba565b60008054906101000a900473ffffffffffffffffffffffffffffffffffffffff1673ffffffffffffffffffffffffffffffffffffffff16638750745e8585856040518463ffffffff1660e01b8152600401610782939291906111d8565b60006040518083038186803b15801561079a57600080fd5b505afa1580156107ae573d6000803e3d6000fd5b505050506040513d6000823e3d601f19601f820116820180604052508101906107d79190610f6c565b90509392505050565b60008054906101000a900473ffffffffffffffffffffffffffffffffffffffff1673ffffffffffffffffffffffffffffffffffffffff1663b71b768d826040518263ffffffff1660e01b81526004016108399190611389565b600060405180830381600087803b15801561085357600080fd5b505af1158015610867573d6000803e3d6000fd5b5050505050565b60008060009054906101000a900473ffffffffffffffffffffffffffffffffffffffff1673ffffffffffffffffffffffffffffffffffffffff1663bdf666a4868686866040518563ffffffff1660e01b81526004016108d0949392919061124f565b602060405180830381600087803b1580156108ea57600080fd5b505af11580156108fe573d6000803e3d6000fd5b505050506040513d601f19601f820116820180604052508101906109229190610c83565b9050949350505050565b60008054906101000a900473ffffffffffffffffffffffffffffffffffffffff1673ffffffffffffffffffffffffffffffffffffffff1663d6f02142826040518263ffffffff1660e01b81526004016109859190611389565b600060405180830381600087803b15801561099f57600080fd5b505af11580156109b3573d6000803e3d6000fd5b5050505050565b60405180606001604052806060815260200160608152602001606081525090565b60006109ee6109e9846113c9565b6113a4565b905082815260208101848484011115610a0a57610a0961159e565b5b610a158482856114f2565b509392505050565b600081359050610a2c816115be565b92915050565b60008083601f840112610a4857610a4761158a565b5b8235905067ffffffffffffffff811115610a6557610a64611585565b5b602083019150836020820283011115610a8157610a80611599565b5b9250929050565b600081519050610a97816115d5565b92915050565b600081359050610aac816115ec565b92915050565b600081519050610ac1816115ec565b92915050565b60008083601f840112610add57610adc61158a565b5b8235905067ffffffffffffffff811115610afa57610af9611585565b5b602083019150836001820283011115610b1657610b15611599565b5b9250929050565b600082601f830112610b3257610b3161158a565b5b8151610b428482602086016109db565b91505092915050565b60008083601f840112610b6157610b6061158a565b5b8235905067ffffffffffffffff811115610b7e57610b7d611585565b5b602083019150836001820283011115610b9a57610b99611599565b5b9250929050565b600060608284031215610bb757610bb661158f565b5b610bc160606113a4565b9050600082015167ffffffffffffffff811115610be157610be0611594565b5b610bed84828501610b1d565b600083015250602082015167ffffffffffffffff811115610c1157610c10611594565b5b610c1d84828501610b1d565b602083015250604082015167ffffffffffffffff811115610c4157610c40611594565b5b610c4d84828501610b1d565b60408301525092915050565b600081359050610c6881611603565b92915050565b600081359050610c7d8161161a565b92915050565b600060208284031215610c9957610c986115a8565b5b6000610ca784828501610a88565b91505092915050565b600060208284031215610cc657610cc56115a8565b5b6000610cd484828501610ab2565b91505092915050565b600080600060608486031215610cf657610cf56115a8565b5b6000610d0486828701610a9d565b9350506020610d1586828701610a1d565b9250506040610d2686828701610c6e565b9150509250925092565b60008060008060608587031215610d4a57610d496115a8565b5b6000610d5887828801610a9d565b9450506020610d6987828801610c6e565b935050604085013567ffffffffffffffff811115610d8a57610d896115a3565b5b610d9687828801610a32565b925092505092959194509250565b60008060008060808587031215610dbe57610dbd6115a8565b5b6000610dcc87828801610a9d565b9450506020610ddd87828801610c6e565b9350506040610dee87828801610a9d565b9250506060610dff87828801610a9d565b91505092959194509250565b60008060008060608587031215610e2557610e246115a8565b5b6000610e3387828801610a9d565b9450506020610e4487828801610c6e565b935050604085013567ffffffffffffffff811115610e6557610e646115a3565b5b610e7187828801610ac7565b925092505092959194509250565b60008060008060008060c08789031215610e9c57610e9b6115a8565b5b6000610eaa89828a01610a9d565b9650506020610ebb89828a01610c6e565b9550506040610ecc89828a01610c59565b9450506060610edd89828a01610c59565b9350506080610eee89828a01610c59565b92505060a0610eff89828a01610c59565b9150509295509295509295565b600080600060408486031215610f2557610f246115a8565b5b600084013567ffffffffffffffff811115610f4357610f426115a3565b5b610f4f86828701610b4b565b93509350506020610f6286828701610a9d565b9150509250925092565b600060208284031215610f8257610f816115a8565b5b600082015167ffffffffffffffff811115610fa057610f9f6115a3565b5b610fac84828501610ba1565b91505092915050565b600060208284031215610fcb57610fca6115a8565b5b6000610fd984828501610c6e565b91505092915050565b6000610fee8383610ffa565b60208301905092915050565b61100381611477565b82525050565b61101281611477565b82525050565b6000611024838561141c565b935061102f826113fa565b8060005b85811015611068576110458284611460565b61104f8882610fe2565b975061105a8361140f565b925050600181019050611033565b5085925050509392505050565b61107e81611489565b82525050565b61108d81611495565b82525050565b600061109f838561143e565b93506110ac8385846114e3565b6110b5836115ad565b840190509392505050565b60006110cb82611404565b6110d5818561142d565b93506110e58185602086016114f2565b6110ee816115ad565b840191505092915050565b6000611105838561144f565b93506111128385846114e3565b61111b836115ad565b840190509392505050565b6000606083016000830151848203600086015261114382826110c0565b9150506020830151848203602086015261115d82826110c0565b9150506040830151848203604086015261117782826110c0565b9150508091505092915050565b61118d816114bf565b82525050565b61119c816114cf565b82525050565b60006020820190506111b76000830184611075565b92915050565b60006020820190506111d26000830184611084565b92915050565b60006060820190506111ed6000830186611084565b6111fa6020830185611009565b6112076040830184611193565b949350505050565b60006060820190506112246000830187611084565b6112316020830186611193565b8181036040830152611244818486611018565b905095945050505050565b60006080820190506112646000830187611084565b6112716020830186611193565b61127e6040830185611084565b61128b6060830184611084565b95945050505050565b60006060820190506112a96000830187611084565b6112b66020830186611193565b81810360408301526112c9818486611093565b905095945050505050565b600060c0820190506112e96000830189611084565b6112f66020830188611193565b6113036040830187611184565b6113106060830186611184565b61131d6080830185611184565b61132a60a0830184611184565b979650505050505050565b600060408201905081810360008301526113508185876110f9565b905061135f6020830184611084565b949350505050565b600060208201905081810360008301526113818184611126565b905092915050565b600060208201905061139e6000830184611193565b92915050565b60006113ae6113bf565b90506113ba8282611525565b919050565b6000604051905090565b600067ffffffffffffffff8211156113e4576113e3611556565b5b6113ed826115ad565b9050602081019050919050565b6000819050919050565b600081519050919050565b6000602082019050919050565b600082825260208201905092915050565b600082825260208201905092915050565b600082825260208201905092915050565b600082825260208201905092915050565b600061146f6020840184610a1d565b905092915050565b60006114828261149f565b9050919050565b60008115159050919050565b6000819050919050565b600073ffffffffffffffffffffffffffffffffffffffff82169050919050565b600063ffffffff82169050919050565b600067ffffffffffffffff82169050919050565b82818337600083830152505050565b60005b838110156115105780820151818401526020810190506114f5565b8381111561151f576000848401525b50505050565b61152e826115ad565b810181811067ffffffffffffffff8211171561154d5761154c611556565b5b80604052505050565b7f4e487b7100000000000000000000000000000000000000000000000000000000600052604160045260246000fd5b600080fd5b600080fd5b600080fd5b600080fd5b600080fd5b600080fd5b600080fd5b600080fd5b6000601f19601f8301169050919050565b6115c781611477565b81146115d257600080fd5b50565b6115de81611489565b81146115e957600080fd5b50565b6115f581611495565b811461160057600080fd5b50565b61160c816114bf565b811461161757600080fd5b50565b611623816114cf565b811461162e57600080fd5b5056fea26469706673582212203369bbb90ef03f658e3096ee344c786c4cc85d31806c94dbb08f13ce191d33c764736f6c63430008070033",
			"opcodes": "PUSH1 0x80 PUSH1 0x40 MSTORE CALLVALUE DUP1 ISZERO PUSH3 0x11 JUMPI PUSH1 0x0 DUP1 REVERT JUMPDEST POP PUSH1 0x40 MLOAD PUSH3 0x17A5 CODESIZE SUB DUP1 PUSH3 0x17A5 DUP4 CODECOPY DUP2 DUP2 ADD PUSH1 0x40 MSTORE DUP2 ADD SWAP1 PUSH3 0x37 SWAP2 SWAP1 PUSH3 0x95 JUMP JUMPDEST DUP1 PUSH1 0x0 DUP1 PUSH2 0x100 EXP DUP2 SLOAD DUP2 PUSH20 0xFFFFFFFFFFFFFFFFFFFFFFFFFFFFFFFFFFFFFFFF MUL NOT AND SWAP1 DUP4 PUSH20 0xFFFFFFFFFFFFFFFFFFFFFFFFFFFFFFFFFFFFFFFF AND MUL OR SWAP1 SSTORE POP POP PUSH3 0x12E JUMP JUMPDEST PUSH1 0x0 DUP2 MLOAD SWAP1 POP PUSH3 0x8F DUP2 PUSH3 0x114 JUMP JUMPDEST SWAP3 SWAP2 POP POP JUMP JUMPDEST PUSH1 0x0 PUSH1 0x20 DUP3 DUP5 SUB SLT ISZERO PUSH3 0xAE JUMPI PUSH3 0xAD PUSH3 0x10F JUMP JUMPDEST JUMPDEST PUSH1 0x0 PUSH3 0xBE DUP5 DUP3 DUP6 ADD PUSH3 0x7E JUMP JUMPDEST SWAP2 POP POP SWAP3 SWAP2 POP POP JUMP JUMPDEST PUSH1 0x0 PUSH3 0xD4 DUP3 PUSH3 0xEF JUMP JUMPDEST SWAP1 POP SWAP2 SWAP1 POP JUMP JUMPDEST PUSH1 0x0 PUSH3 0xE8 DUP3 PUSH3 0xC7 JUMP JUMPDEST SWAP1 POP SWAP2 SWAP1 POP JUMP JUMPDEST PUSH1 0x0 PUSH20 0xFFFFFFFFFFFFFFFFFFFFFFFFFFFFFFFFFFFFFFFF DUP3 AND SWAP1 POP SWAP2 SWAP1 POP JUMP JUMPDEST PUSH1 0x0 DUP1 REVERT JUMPDEST PUSH3 0x11F DUP2 PUSH3 0xDB JUMP JUMPDEST DUP2 EQ PUSH3 0x12B JUMPI PUSH1 0x0 DUP1 REVERT JUMPDEST POP JUMP JUMPDEST PUSH2 0x1667 DUP1 PUSH3 0x13E PUSH1 0x0 CODECOPY PUSH1 0x0 RETURN INVALID PUSH1 0x80 PUSH1 0x40 MSTORE PUSH1 0x4 CALLDATASIZE LT PUSH2 0xA7 JUMPI PUSH1 0x0 CALLDATALOAD PUSH1 0xE0 SHR DUP1 PUSH4 0x68F14ACF GT PUSH2 0x64 JUMPI DUP1 PUSH4 0x68F14ACF EQ PUSH2 0x1A4 JUMPI DUP1 PUSH4 0x75CB2A0E EQ PUSH2 0x1CD JUMPI DUP1 PUSH4 0x8750745E EQ PUSH2 0x1FD JUMPI DUP1 PUSH4 0xB71B768D EQ PUSH2 0x23A JUMPI DUP1 PUSH4 0xBDF666A4 EQ PUSH2 0x263 JUMPI DUP1 PUSH4 0xD6F02142 EQ PUSH2 0x2A0 JUMPI PUSH2 0xA7 JUMP JUMPDEST DUP1 PUSH4 0x20F0672C EQ PUSH2 0xAC JUMPI DUP1 PUSH4 0x2E9C58BB EQ PUSH2 0xD5 JUMPI DUP1 PUSH4 0x41E865CB EQ PUSH2 0x100 JUMPI DUP1 PUSH4 0x456523E2 EQ PUSH2 0x129 JUMPI DUP1 PUSH4 0x4956219B EQ PUSH2 0x152 JUMPI DUP1 PUSH4 0x57C91B95 EQ PUSH2 0x17B JUMPI JUMPDEST PUSH1 0x0 DUP1 REVERT JUMPDEST CALLVALUE DUP1 ISZERO PUSH2 0xB8 JUMPI PUSH1 0x0 DUP1 REVERT JUMPDEST POP PUSH2 0xD3 PUSH1 0x4 DUP1 CALLDATASIZE SUB DUP2 ADD SWAP1 PUSH2 0xCE SWAP2 SWAP1 PUSH2 0xE0B JUMP JUMPDEST PUSH2 0x2C9 JUMP JUMPDEST STOP JUMPDEST CALLVALUE DUP1 ISZERO PUSH2 0xE1 JUMPI PUSH1 0x0 DUP1 REVERT JUMPDEST POP PUSH2 0xEA PUSH2 0x360 JUMP JUMPDEST PUSH1 0x40 MLOAD PUSH2 0xF7 SWAP2 SWAP1 PUSH2 0x11A2 JUMP JUMPDEST PUSH1 0x40 MLOAD DUP1 SWAP2 SUB SWAP1 RETURN JUMPDEST CALLVALUE DUP1 ISZERO PUSH2 0x10C JUMPI PUSH1 0x0 DUP1 REVERT JUMPDEST POP PUSH2 0x127 PUSH1 0x4 DUP1 CALLDATASIZE SUB DUP2 ADD SWAP1 PUSH2 0x122 SWAP2 SWAP1 PUSH2 0xD30 JUMP JUMPDEST PUSH2 0x369 JUMP JUMPDEST STOP JUMPDEST CALLVALUE DUP1 ISZERO PUSH2 0x135 JUMPI PUSH1 0x0 DUP1 REVERT JUMPDEST POP PUSH2 0x150 PUSH1 0x4 DUP1 CALLDATASIZE SUB DUP2 ADD SWAP1 PUSH2 0x14B SWAP2 SWAP1 PUSH2 0xE0B JUMP JUMPDEST PUSH2 0x400 JUMP JUMPDEST STOP JUMPDEST CALLVALUE DUP1 ISZERO PUSH2 0x15E JUMPI PUSH1 0x0 DUP1 REVERT JUMPDEST POP PUSH2 0x179 PUSH1 0x4 DUP1 CALLDATASIZE SUB DUP2 ADD SWAP1 PUSH2 0x174 SWAP2 SWAP1 PUSH2 0xD30 JUMP JUMPDEST PUSH2 0x497 JUMP JUMPDEST STOP JUMPDEST CALLVALUE DUP1 ISZERO PUSH2 0x187 JUMPI PUSH1 0x0 DUP1 REVERT JUMPDEST POP PUSH2 0x1A2 PUSH1 0x4 DUP1 CALLDATASIZE SUB DUP2 ADD SWAP1 PUSH2 0x19D SWAP2 SWAP1 PUSH2 0xE7F JUMP JUMPDEST PUSH2 0x52E JUMP JUMPDEST STOP JUMPDEST CALLVALUE DUP1 ISZERO PUSH2 0x1B0 JUMPI PUSH1 0x0 DUP1 REVERT JUMPDEST POP PUSH2 0x1CB PUSH1 0x4 DUP1 CALLDATASIZE SUB DUP2 ADD SWAP1 PUSH2 0x1C6 SWAP2 SWAP1 PUSH2 0xE0B JUMP JUMPDEST PUSH2 0x5CB JUMP JUMPDEST STOP JUMPDEST PUSH2 0x1E7 PUSH1 0x4 DUP1 CALLDATASIZE SUB DUP2 ADD SWAP1 PUSH2 0x1E2 SWAP2 SWAP1 PUSH2 0xF0C JUMP JUMPDEST PUSH2 0x662 JUMP JUMPDEST PUSH1 0x40 MLOAD PUSH2 0x1F4 SWAP2 SWAP1 PUSH2 0x11BD JUMP JUMPDEST PUSH1 0x40 MLOAD DUP1 SWAP2 SUB SWAP1 RETURN JUMPDEST CALLVALUE DUP1 ISZERO PUSH2 0x209 JUMPI PUSH1 0x0 DUP1 REVERT JUMPDEST POP PUSH2 0x224 PUSH1 0x4 DUP1 CALLDATASIZE SUB DUP2 ADD SWAP1 PUSH2 0x21F SWAP2 SWAP1 PUSH2 0xCDD JUMP JUMPDEST PUSH2 0x71D JUMP JUMPDEST PUSH1 0x40 MLOAD PUSH2 0x231 SWAP2 SWAP1 PUSH2 0x1367 JUMP JUMPDEST PUSH1 0x40 MLOAD DUP1 SWAP2 SUB SWAP1 RETURN JUMPDEST CALLVALUE DUP1 ISZERO PUSH2 0x246 JUMPI PUSH1 0x0 DUP1 REVERT JUMPDEST POP PUSH2 0x261 PUSH1 0x4 DUP1 CALLDATASIZE SUB DUP2 ADD SWAP1 PUSH2 0x25C SWAP2 SWAP1 PUSH2 0xFB5 JUMP JUMPDEST PUSH2 0x7E0 JUMP JUMPDEST STOP JUMPDEST CALLVALUE DUP1 ISZERO PUSH2 0x26F JUMPI PUSH1 0x0 DUP1 REVERT JUMPDEST POP PUSH2 0x28A PUSH1 0x4 DUP1 CALLDATASIZE SUB DUP2 ADD SWAP1 PUSH2 0x285 SWAP2 SWAP1 PUSH2 0xDA4 JUMP JUMPDEST PUSH2 0x86E JUMP JUMPDEST PUSH1 0x40 MLOAD PUSH2 0x297 SWAP2 SWAP1 PUSH2 0x11A2 JUMP JUMPDEST PUSH1 0x40 MLOAD DUP1 SWAP2 SUB SWAP1 RETURN JUMPDEST CALLVALUE DUP1 ISZERO PUSH2 0x2AC JUMPI PUSH1 0x0 DUP1 REVERT JUMPDEST POP PUSH2 0x2C7 PUSH1 0x4 DUP1 CALLDATASIZE SUB DUP2 ADD SWAP1 PUSH2 0x2C2 SWAP2 SWAP1 PUSH2 0xFB5 JUMP JUMPDEST PUSH2 0x92C JUMP JUMPDEST STOP JUMPDEST PUSH1 0x0 DUP1 SLOAD SWAP1 PUSH2 0x100 EXP SWAP1 DIV PUSH20 0xFFFFFFFFFFFFFFFFFFFFFFFFFFFFFFFFFFFFFFFF AND PUSH20 0xFFFFFFFFFFFFFFFFFFFFFFFFFFFFFFFFFFFFFFFF AND PUSH4 0x20F0672C DUP6 DUP6 DUP6 DUP6 PUSH1 0x40 MLOAD DUP6 PUSH4 0xFFFFFFFF AND PUSH1 0xE0 SHL DUP2 MSTORE PUSH1 0x4 ADD PUSH2 0x328 SWAP5 SWAP4 SWAP3 SWAP2 SWAP1 PUSH2 0x1294 JUMP JUMPDEST PUSH1 0x0 PUSH1 0x40 MLOAD DUP1 DUP4 SUB DUP2 PUSH1 0x0 DUP8 DUP1 EXTCODESIZE ISZERO DUP1 ISZERO PUSH2 0x342 JUMPI PUSH1 0x0 DUP1 REVERT JUMPDEST POP GAS CALL ISZERO DUP1 ISZERO PUSH2 0x356 JUMPI RETURNDATASIZE PUSH1 0x0 DUP1 RETURNDATACOPY RETURNDATASIZE PUSH1 0x0 REVERT JUMPDEST POP POP POP POP POP POP POP POP JUMP JUMPDEST PUSH1 0x0 PUSH1 0x1 SWAP1 POP SWAP1 JUMP JUMPDEST PUSH1 0x0 DUP1 SLOAD SWAP1 PUSH2 0x100 EXP SWAP1 DIV PUSH20 0xFFFFFFFFFFFFFFFFFFFFFFFFFFFFFFFFFFFFFFFF AND PUSH20 0xFFFFFFFFFFFFFFFFFFFFFFFFFFFFFFFFFFFFFFFF AND PUSH4 0x41E865CB DUP6 DUP6 DUP6 DUP6 PUSH1 0x40 MLOAD DUP6 PUSH4 0xFFFFFFFF AND PUSH1 0xE0 SHL DUP2 MSTORE PUSH1 0x4 ADD PUSH2 0x3C8 SWAP5 SWAP4 SWAP3 SWAP2 SWAP1 PUSH2 0x120F JUMP JUMPDEST PUSH1 0x0 PUSH1 0x40 MLOAD DUP1 DUP4 SUB DUP2 PUSH1 0x0 DUP8 DUP1 EXTCODESIZE ISZERO DUP1 ISZERO PUSH2 0x3E2 JUMPI PUSH1 0x0 DUP1 REVERT JUMPDEST POP GAS CALL ISZERO DUP1 ISZERO PUSH2 0x3F6 JUMPI RETURNDATASIZE PUSH1 0x0 DUP1 RETURNDATACOPY RETURNDATASIZE PUSH1 0x0 REVERT JUMPDEST POP POP POP POP POP POP POP POP JUMP JUMPDEST PUSH1 0x0 DUP1 SLOAD SWAP1 PUSH2 0x100 EXP SWAP1 DIV PUSH20 0xFFFFFFFFFFFFFFFFFFFFFFFFFFFFFFFFFFFFFFFF AND PUSH20 0xFFFFFFFFFFFFFFFFFFFFFFFFFFFFFFFFFFFFFFFF AND PUSH4 0x456523E2 DUP6 DUP6 DUP6 DUP6 PUSH1 0x40 MLOAD DUP6 PUSH4 0xFFFFFFFF AND PUSH1 0xE0 SHL DUP2 MSTORE PUSH1 0x4 ADD PUSH2 0x45F SWAP5 SWAP4 SWAP3 SWAP2 SWAP1 PUSH2 0x1294 JUMP JUMPDEST PUSH1 0x0 PUSH1 0x40 MLOAD DUP1 DUP4 SUB DUP2 PUSH1 0x0 DUP8 DUP1 EXTCODESIZE ISZERO DUP1 ISZERO PUSH2 0x479 JUMPI PUSH1 0x0 DUP1 REVERT JUMPDEST POP GAS CALL ISZERO DUP1 ISZERO PUSH2 0x48D JUMPI RETURNDATASIZE PUSH1 0x0 DUP1 RETURNDATACOPY RETURNDATASIZE PUSH1 0x0 REVERT JUMPDEST POP POP POP POP POP POP POP POP JUMP JUMPDEST PUSH1 0x0 DUP1 SLOAD SWAP1 PUSH2 0x100 EXP SWAP1 DIV PUSH20 0xFFFFFFFFFFFFFFFFFFFFFFFFFFFFFFFFFFFFFFFF AND PUSH20 0xFFFFFFFFFFFFFFFFFFFFFFFFFFFFFFFFFFFFFFFF AND PUSH4 0x4956219B DUP6 DUP6 DUP6 DUP6 PUSH1 0x40 MLOAD DUP6 PUSH4 0xFFFFFFFF AND PUSH1 0xE0 SHL DUP2 MSTORE PUSH1 0x4 ADD PUSH2 0x4F6 SWAP5 SWAP4 SWAP3 SWAP2 SWAP1 PUSH2 0x120F JUMP JUMPDEST PUSH1 0x0 PUSH1 0x40 MLOAD DUP1 DUP4 SUB DUP2 PUSH1 0x0 DUP8 DUP1 EXTCODESIZE ISZERO DUP1 ISZERO PUSH2 0x510 JUMPI PUSH1 0x0 DUP1 REVERT JUMPDEST POP GAS CALL ISZERO DUP1 ISZERO PUSH2 0x524 JUMPI RETURNDATASIZE PUSH1 0x0 DUP1 RETURNDATACOPY RETURNDATASIZE PUSH1 0x0 REVERT JUMPDEST POP POP POP POP POP POP POP POP JUMP JUMPDEST PUSH1 0x0 DUP1 SLOAD SWAP1 PUSH2 0x100 EXP SWAP1 DIV PUSH20 0xFFFFFFFFFFFFFFFFFFFFFFFFFFFFFFFFFFFFFFFF AND PUSH20 0xFFFFFFFFFFFFFFFFFFFFFFFFFFFFFFFFFFFFFFFF AND PUSH4 0x57C91B95 DUP8 DUP8 DUP8 DUP8 DUP8 DUP8 PUSH1 0x40 MLOAD DUP8 PUSH4 0xFFFFFFFF AND PUSH1 0xE0 SHL DUP2 MSTORE PUSH1 0x4 ADD PUSH2 0x591 SWAP7 SWAP6 SWAP5 SWAP4 SWAP3 SWAP2 SWAP1 PUSH2 0x12D4 JUMP JUMPDEST PUSH1 0x0 PUSH1 0x40 MLOAD DUP1 DUP4 SUB DUP2 PUSH1 0x0 DUP8 DUP1 EXTCODESIZE ISZERO DUP1 ISZERO PUSH2 0x5AB JUMPI PUSH1 0x0 DUP1 REVERT JUMPDEST POP GAS CALL ISZERO DUP1 ISZERO PUSH2 0x5BF JUMPI RETURNDATASIZE PUSH1 0x0 DUP1 RETURNDATACOPY RETURNDATASIZE PUSH1 0x0 REVERT JUMPDEST POP POP POP POP POP POP POP POP POP POP JUMP JUMPDEST PUSH1 0x0 DUP1 SLOAD SWAP1 PUSH2 0x100 EXP SWAP1 DIV PUSH20 0xFFFFFFFFFFFFFFFFFFFFFFFFFFFFFFFFFFFFFFFF AND PUSH20 0xFFFFFFFFFFFFFFFFFFFFFFFFFFFFFFFFFFFFFFFF AND PUSH4 0x68F14ACF DUP6 DUP6 DUP6 DUP6 PUSH1 0x40 MLOAD DUP6 PUSH4 0xFFFFFFFF AND PUSH1 0xE0 SHL DUP2 MSTORE PUSH1 0x4 ADD PUSH2 0x62A SWAP5 SWAP4 SWAP3 SWAP2 SWAP1 PUSH2 0x1294 JUMP JUMPDEST PUSH1 0x0 PUSH1 0x40 MLOAD DUP1 DUP4 SUB DUP2 PUSH1 0x0 DUP8 DUP1 EXTCODESIZE ISZERO DUP1 ISZERO PUSH2 0x644 JUMPI PUSH1 0x0 DUP1 REVERT JUMPDEST POP GAS CALL ISZERO DUP1 ISZERO PUSH2 0x658 JUMPI RETURNDATASIZE PUSH1 0x0 DUP1 RETURNDATACOPY RETURNDATASIZE PUSH1 0x0 REVERT JUMPDEST POP POP POP POP POP POP POP POP JUMP JUMPDEST PUSH1 0x0 DUP1 PUSH1 0x0 SWAP1 SLOAD SWAP1 PUSH2 0x100 EXP SWAP1 DIV PUSH20 0xFFFFFFFFFFFFFFFFFFFFFFFFFFFFFFFFFFFFFFFF AND PUSH20 0xFFFFFFFFFFFFFFFFFFFFFFFFFFFFFFFFFFFFFFFF AND PUSH4 0x75CB2A0E DUP6 DUP6 DUP6 PUSH1 0x40 MLOAD DUP5 PUSH4 0xFFFFFFFF AND PUSH1 0xE0 SHL DUP2 MSTORE PUSH1 0x4 ADD PUSH2 0x6C2 SWAP4 SWAP3 SWAP2 SWAP1 PUSH2 0x1335 JUMP JUMPDEST PUSH1 0x20 PUSH1 0x40 MLOAD DUP1 DUP4 SUB DUP2 PUSH1 0x0 DUP8 DUP1 EXTCODESIZE ISZERO DUP1 ISZERO PUSH2 0x6DC JUMPI PUSH1 0x0 DUP1 REVERT JUMPDEST POP GAS CALL ISZERO DUP1 ISZERO PUSH2 0x6F0 JUMPI RETURNDATASIZE PUSH1 0x0 DUP1 RETURNDATACOPY RETURNDATASIZE PUSH1 0x0 REVERT JUMPDEST POP POP POP POP PUSH1 0x40 MLOAD RETURNDATASIZE PUSH1 0x1F NOT PUSH1 0x1F DUP3 ADD AND DUP3 ADD DUP1 PUSH1 0x40 MSTORE POP DUP2 ADD SWAP1 PUSH2 0x714 SWAP2 SWAP1 PUSH2 0xCB0 JUMP JUMPDEST SWAP1 POP SWAP4 SWAP3 POP POP POP JUMP JUMPDEST PUSH2 0x725 PUSH2 0x9BA JUMP JUMPDEST PUSH1 0x0 DUP1 SLOAD SWAP1 PUSH2 0x100 EXP SWAP1 DIV PUSH20 0xFFFFFFFFFFFFFFFFFFFFFFFFFFFFFFFFFFFFFFFF AND PUSH20 0xFFFFFFFFFFFFFFFFFFFFFFFFFFFFFFFFFFFFFFFF AND PUSH4 0x8750745E DUP6 DUP6 DUP6 PUSH1 0x40 MLOAD DUP5 PUSH4 0xFFFFFFFF AND PUSH1 0xE0 SHL DUP2 MSTORE PUSH1 0x4 ADD PUSH2 0x782 SWAP4 SWAP3 SWAP2 SWAP1 PUSH2 0x11D8 JUMP JUMPDEST PUSH1 0x0 PUSH1 0x40 MLOAD DUP1 DUP4 SUB DUP2 DUP7 DUP1 EXTCODESIZE ISZERO DUP1 ISZERO PUSH2 0x79A JUMPI PUSH1 0x0 DUP1 REVERT JUMPDEST POP GAS STATICCALL ISZERO DUP1 ISZERO PUSH2 0x7AE JUMPI RETURNDATASIZE PUSH1 0x0 DUP1 RETURNDATACOPY RETURNDATASIZE PUSH1 0x0 REVERT JUMPDEST POP POP POP POP PUSH1 0x40 MLOAD RETURNDATASIZE PUSH1 0x0 DUP3 RETURNDATACOPY RETURNDATASIZE PUSH1 0x1F NOT PUSH1 0x1F DUP3 ADD AND DUP3 ADD DUP1 PUSH1 0x40 MSTORE POP DUP2 ADD SWAP1 PUSH2 0x7D7 SWAP2 SWAP1 PUSH2 0xF6C JUMP JUMPDEST SWAP1 POP SWAP4 SWAP3 POP POP POP JUMP JUMPDEST PUSH1 0x0 DUP1 SLOAD SWAP1 PUSH2 0x100 EXP SWAP1 DIV PUSH20 0xFFFFFFFFFFFFFFFFFFFFFFFFFFFFFFFFFFFFFFFF AND PUSH20 0xFFFFFFFFFFFFFFFFFFFFFFFFFFFFFFFFFFFFFFFF AND PUSH4 0xB71B768D DUP3 PUSH1 0x40 MLOAD DUP3 PUSH4 0xFFFFFFFF AND PUSH1 0xE0 SHL DUP2 MSTORE PUSH1 0x4 ADD PUSH2 0x839 SWAP2 SWAP1 PUSH2 0x1389 JUMP JUMPDEST PUSH1 0x0 PUSH1 0x40 MLOAD DUP1 DUP4 SUB DUP2 PUSH1 0x0 DUP8 DUP1 EXTCODESIZE ISZERO DUP1 ISZERO PUSH2 0x853 JUMPI PUSH1 0x0 DUP1 REVERT JUMPDEST POP GAS CALL ISZERO DUP1 ISZERO PUSH2 0x867 JUMPI RETURNDATASIZE PUSH1 0x0 DUP1 RETURNDATACOPY RETURNDATASIZE PUSH1 0x0 REVERT JUMPDEST POP POP POP POP POP JUMP JUMPDEST PUSH1 0x0 DUP1 PUSH1 0x0 SWAP1 SLOAD SWAP1 PUSH2 0x100 EXP SWAP1 DIV PUSH20 0xFFFFFFFFFFFFFFFFFFFFFFFFFFFFFFFFFFFFFFFF AND PUSH20 0xFFFFFFFFFFFFFFFFFFFFFFFFFFFFFFFFFFFFFFFF AND PUSH4 0xBDF666A4 DUP7 DUP7 DUP7 DUP7 PUSH1 0x40 MLOAD DUP6 PUSH4 0xFFFFFFFF AND PUSH1 0xE0 SHL DUP2 MSTORE PUSH1 0x4 ADD PUSH2 0x8D0 SWAP5 SWAP4 SWAP3 SWAP2 SWAP1 PUSH2 0x124F JUMP JUMPDEST PUSH1 0x20 PUSH1 0x40 MLOAD DUP1 DUP4 SUB DUP2 PUSH1 0x0 DUP8 DUP1 EXTCODESIZE ISZERO DUP1 ISZERO PUSH2 0x8EA JUMPI PUSH1 0x0 DUP1 REVERT JUMPDEST POP GAS CALL ISZERO DUP1 ISZERO PUSH2 0x8FE JUMPI RETURNDATASIZE PUSH1 0x0 DUP1 RETURNDATACOPY RETURNDATASIZE PUSH1 0x0 REVERT JUMPDEST POP POP POP POP PUSH1 0x40 MLOAD RETURNDATASIZE PUSH1 0x1F NOT PUSH1 0x1F DUP3 ADD AND DUP3 ADD DUP1 PUSH1 0x40 MSTORE POP DUP2 ADD SWAP1 PUSH2 0x922 SWAP2 SWAP1 PUSH2 0xC83 JUMP JUMPDEST SWAP1 POP SWAP5 SWAP4 POP POP POP POP JUMP JUMPDEST PUSH1 0x0 DUP1 SLOAD SWAP1 PUSH2 0x100 EXP SWAP1 DIV PUSH20 0xFFFFFFFFFFFFFFFFFFFFFFFFFFFFFFFFFFFFFFFF AND PUSH20 0xFFFFFFFFFFFFFFFFFFFFFFFFFFFFFFFFFFFFFFFF AND PUSH4 0xD6F02142 DUP3 PUSH1 0x40 MLOAD DUP3 PUSH4 0xFFFFFFFF AND PUSH1 0xE0 SHL DUP2 MSTORE PUSH1 0x4 ADD PUSH2 0x985 SWAP2 SWAP1 PUSH2 0x1389 JUMP JUMPDEST PUSH1 0x0 PUSH1 0x40 MLOAD DUP1 DUP4 SUB DUP2 PUSH1 0x0 DUP8 DUP1 EXTCODESIZE ISZERO DUP1 ISZERO PUSH2 0x99F JUMPI PUSH1 0x0 DUP1 REVERT JUMPDEST POP GAS CALL ISZERO DUP1 ISZERO PUSH2 0x9B3 JUMPI RETURNDATASIZE PUSH1 0x0 DUP1 RETURNDATACOPY RETURNDATASIZE PUSH1 0x0 REVERT JUMPDEST POP POP POP POP POP JUMP JUMPDEST PUSH1 0x40 MLOAD DUP1 PUSH1 0x60 ADD PUSH1 0x40 MSTORE DUP1 PUSH1 0x60 DUP2 MSTORE PUSH1 0x20 ADD PUSH1 0x60 DUP2 MSTORE PUSH1 0x20 ADD PUSH1 0x60 DUP2 MSTORE POP SWAP1 JUMP JUMPDEST PUSH1 0x0 PUSH2 0x9EE PUSH2 0x9E9 DUP5 PUSH2 0x13C9 JUMP JUMPDEST PUSH2 0x13A4 JUMP JUMPDEST SWAP1 POP DUP3 DUP2 MSTORE PUSH1 0x20 DUP2 ADD DUP5 DUP5 DUP5 ADD GT ISZERO PUSH2 0xA0A JUMPI PUSH2 0xA09 PUSH2 0x159E JUMP JUMPDEST JUMPDEST PUSH2 0xA15 DUP5 DUP3 DUP6 PUSH2 0x14F2 JUMP JUMPDEST POP SWAP4 SWAP3 POP POP POP JUMP JUMPDEST PUSH1 0x0 DUP2 CALLDATALOAD SWAP1 POP PUSH2 0xA2C DUP2 PUSH2 0x15BE JUMP JUMPDEST SWAP3 SWAP2 POP POP JUMP JUMPDEST PUSH1 0x0 DUP1 DUP4 PUSH1 0x1F DUP5 ADD SLT PUSH2 0xA48 JUMPI PUSH2 0xA47 PUSH2 0x158A JUMP JUMPDEST JUMPDEST DUP3 CALLDATALOAD SWAP1 POP PUSH8 0xFFFFFFFFFFFFFFFF DUP2 GT ISZERO PUSH2 0xA65 JUMPI PUSH2 0xA64 PUSH2 0x1585 JUMP JUMPDEST JUMPDEST PUSH1 0x20 DUP4 ADD SWAP2 POP DUP4 PUSH1 0x20 DUP3 MUL DUP4 ADD GT ISZERO PUSH2 0xA81 JUMPI PUSH2 0xA80 PUSH2 0x1599 JUMP JUMPDEST JUMPDEST SWAP3 POP SWAP3 SWAP1 POP JUMP JUMPDEST PUSH1 0x0 DUP2 MLOAD SWAP1 POP PUSH2 0xA97 DUP2 PUSH2 0x15D5 JUMP JUMPDEST SWAP3 SWAP2 POP POP JUMP JUMPDEST PUSH1 0x0 DUP2 CALLDATALOAD SWAP1 POP PUSH2 0xAAC DUP2 PUSH2 0x15EC JUMP JUMPDEST SWAP3 SWAP2 POP POP JUMP JUMPDEST PUSH1 0x0 DUP2 MLOAD SWAP1 POP PUSH2 0xAC1 DUP2 PUSH2 0x15EC JUMP JUMPDEST SWAP3 SWAP2 POP POP JUMP JUMPDEST PUSH1 0x0 DUP1 DUP4 PUSH1 0x1F DUP5 ADD SLT PUSH2 0xADD JUMPI PUSH2 0xADC PUSH2 0x158A JUMP JUMPDEST JUMPDEST DUP3 CALLDATALOAD SWAP1 POP PUSH8 0xFFFFFFFFFFFFFFFF DUP2 GT ISZERO PUSH2 0xAFA JUMPI PUSH2 0xAF9 PUSH2 0x1585 JUMP JUMPDEST JUMPDEST PUSH1 0x20 DUP4 ADD SWAP2 POP DUP4 PUSH1 0x1 DUP3 MUL DUP4 ADD GT ISZERO PUSH2 0xB16 JUMPI PUSH2 0xB15 PUSH2 0x1599 JUMP JUMPDEST JUMPDEST SWAP3 POP SWAP3 SWAP1 POP JUMP JUMPDEST PUSH1 0x0 DUP3 PUSH1 0x1F DUP4 ADD SLT PUSH2 0xB32 JUMPI PUSH2 0xB31 PUSH2 0x158A JUMP JUMPDEST JUMPDEST DUP2 MLOAD PUSH2 0xB42 DUP5 DUP3 PUSH1 0x20 DUP7 ADD PUSH2 0x9DB JUMP JUMPDEST SWAP2 POP POP SWAP3 SWAP2 POP POP JUMP JUMPDEST PUSH1 0x0 DUP1 DUP4 PUSH1 0x1F DUP5 ADD SLT PUSH2 0xB61 JUMPI PUSH2 0xB60 PUSH2 0x158A JUMP JUMPDEST JUMPDEST DUP3 CALLDATALOAD SWAP1 POP PUSH8 0xFFFFFFFFFFFFFFFF DUP2 GT ISZERO PUSH2 0xB7E JUMPI PUSH2 0xB7D PUSH2 0x1585 JUMP JUMPDEST JUMPDEST PUSH1 0x20 DUP4 ADD SWAP2 POP DUP4 PUSH1 0x1 DUP3 MUL DUP4 ADD GT ISZERO PUSH2 0xB9A JUMPI PUSH2 0xB99 PUSH2 0x1599 JUMP JUMPDEST JUMPDEST SWAP3 POP SWAP3 SWAP1 POP JUMP JUMPDEST PUSH1 0x0 PUSH1 0x60 DUP3 DUP5 SUB SLT ISZERO PUSH2 0xBB7 JUMPI PUSH2 0xBB6 PUSH2 0x158F JUMP JUMPDEST JUMPDEST PUSH2 0xBC1 PUSH1 0x60 PUSH2 0x13A4 JUMP JUMPDEST SWAP1 POP PUSH1 0x0 DUP3 ADD MLOAD PUSH8 0xFFFFFFFFFFFFFFFF DUP2 GT ISZERO PUSH2 0xBE1 JUMPI PUSH2 0xBE0 PUSH2 0x1594 JUMP JUMPDEST JUMPDEST PUSH2 0xBED DUP5 DUP3 DUP6 ADD PUSH2 0xB1D JUMP JUMPDEST PUSH1 0x0 DUP4 ADD MSTORE POP PUSH1 0x20 DUP3 ADD MLOAD PUSH8 0xFFFFFFFFFFFFFFFF DUP2 GT ISZERO PUSH2 0xC11 JUMPI PUSH2 0xC10 PUSH2 0x1594 JUMP JUMPDEST JUMPDEST PUSH2 0xC1D DUP5 DUP3 DUP6 ADD PUSH2 0xB1D JUMP JUMPDEST PUSH1 0x20 DUP4 ADD MSTORE POP PUSH1 0x40 DUP3 ADD MLOAD PUSH8 0xFFFFFFFFFFFFFFFF DUP2 GT ISZERO PUSH2 0xC41 JUMPI PUSH2 0xC40 PUSH2 0x1594 JUMP JUMPDEST JUMPDEST PUSH2 0xC4D DUP5 DUP3 DUP6 ADD PUSH2 0xB1D JUMP JUMPDEST PUSH1 0x40 DUP4 ADD MSTORE POP SWAP3 SWAP2 POP POP JUMP JUMPDEST PUSH1 0x0 DUP2 CALLDATALOAD SWAP1 POP PUSH2 0xC68 DUP2 PUSH2 0x1603 JUMP JUMPDEST SWAP3 SWAP2 POP POP JUMP JUMPDEST PUSH1 0x0 DUP2 CALLDATALOAD SWAP1 POP PUSH2 0xC7D DUP2 PUSH2 0x161A JUMP JUMPDEST SWAP3 SWAP2 POP POP JUMP JUMPDEST PUSH1 0x0 PUSH1 0x20 DUP3 DUP5 SUB SLT ISZERO PUSH2 0xC99 JUMPI PUSH2 0xC98 PUSH2 0x15A8 JUMP JUMPDEST JUMPDEST PUSH1 0x0 PUSH2 0xCA7 DUP5 DUP3 DUP6 ADD PUSH2 0xA88 JUMP JUMPDEST SWAP2 POP POP SWAP3 SWAP2 POP POP JUMP JUMPDEST PUSH1 0x0 PUSH1 0x20 DUP3 DUP5 SUB SLT ISZERO PUSH2 0xCC6 JUMPI PUSH2 0xCC5 PUSH2 0x15A8 JUMP JUMPDEST JUMPDEST PUSH1 0x0 PUSH2 0xCD4 DUP5 DUP3 DUP6 ADD PUSH2 0xAB2 JUMP JUMPDEST SWAP2 POP POP SWAP3 SWAP2 POP POP JUMP JUMPDEST PUSH1 0x0 DUP1 PUSH1 0x0 PUSH1 0x60 DUP5 DUP7 SUB SLT ISZERO PUSH2 0xCF6 JUMPI PUSH2 0xCF5 PUSH2 0x15A8 JUMP JUMPDEST JUMPDEST PUSH1 0x0 PUSH2 0xD04 DUP7 DUP3 DUP8 ADD PUSH2 0xA9D JUMP JUMPDEST SWAP4 POP POP PUSH1 0x20 PUSH2 0xD15 DUP7 DUP3 DUP8 ADD PUSH2 0xA1D JUMP JUMPDEST SWAP3 POP POP PUSH1 0x40 PUSH2 0xD26 DUP7 DUP3 DUP8 ADD PUSH2 0xC6E JUMP JUMPDEST SWAP2 POP POP SWAP3 POP SWAP3 POP SWAP3 JUMP JUMPDEST PUSH1 0x0 DUP1 PUSH1 0x0 DUP1 PUSH1 0x60 DUP6 DUP8 SUB SLT ISZERO PUSH2 0xD4A JUMPI PUSH2 0xD49 PUSH2 0x15A8 JUMP JUMPDEST JUMPDEST PUSH1 0x0 PUSH2 0xD58 DUP8 DUP3 DUP9 ADD PUSH2 0xA9D JUMP JUMPDEST SWAP5 POP POP PUSH1 0x20 PUSH2 0xD69 DUP8 DUP3 DUP9 ADD PUSH2 0xC6E JUMP JUMPDEST SWAP4 POP POP PUSH1 0x40 DUP6 ADD CALLDATALOAD PUSH8 0xFFFFFFFFFFFFFFFF DUP2 GT ISZERO PUSH2 0xD8A JUMPI PUSH2 0xD89 PUSH2 0x15A3 JUMP JUMPDEST JUMPDEST PUSH2 0xD96 DUP8 DUP3 DUP9 ADD PUSH2 0xA32 JUMP JUMPDEST SWAP3 POP SWAP3 POP POP SWAP3 SWAP6 SWAP2 SWAP5 POP SWAP3 POP JUMP JUMPDEST PUSH1 0x0 DUP1 PUSH1 0x0 DUP1 PUSH1 0x80 DUP6 DUP8 SUB SLT ISZERO PUSH2 0xDBE JUMPI PUSH2 0xDBD PUSH2 0x15A8 JUMP JUMPDEST JUMPDEST PUSH1 0x0 PUSH2 0xDCC DUP8 DUP3 DUP9 ADD PUSH2 0xA9D JUMP JUMPDEST SWAP5 POP POP PUSH1 0x20 PUSH2 0xDDD DUP8 DUP3 DUP9 ADD PUSH2 0xC6E JUMP JUMPDEST SWAP4 POP POP PUSH1 0x40 PUSH2 0xDEE DUP8 DUP3 DUP9 ADD PUSH2 0xA9D JUMP JUMPDEST SWAP3 POP POP PUSH1 0x60 PUSH2 0xDFF DUP8 DUP3 DUP9 ADD PUSH2 0xA9D JUMP JUMPDEST SWAP2 POP POP SWAP3 SWAP6 SWAP2 SWAP5 POP SWAP3 POP JUMP JUMPDEST PUSH1 0x0 DUP1 PUSH1 0x0 DUP1 PUSH1 0x60 DUP6 DUP8 SUB SLT ISZERO PUSH2 0xE25 JUMPI PUSH2 0xE24 PUSH2 0x15A8 JUMP JUMPDEST JUMPDEST PUSH1 0x0 PUSH2 0xE33 DUP8 DUP3 DUP9 ADD PUSH2 0xA9D JUMP JUMPDEST SWAP5 POP POP PUSH1 0x20 PUSH2 0xE44 DUP8 DUP3 DUP9 ADD PUSH2 0xC6E JUMP JUMPDEST SWAP4 POP POP PUSH1 0x40 DUP6 ADD CALLDATALOAD PUSH8 0xFFFFFFFFFFFFFFFF DUP2 GT ISZERO PUSH2 0xE65 JUMPI PUSH2 0xE64 PUSH2 0x15A3 JUMP JUMPDEST JUMPDEST PUSH2 0xE71 DUP8 DUP3 DUP9 ADD PUSH2 0xAC7 JUMP JUMPDEST SWAP3 POP SWAP3 POP POP SWAP3 SWAP6 SWAP2 SWAP5 POP SWAP3 POP JUMP JUMPDEST PUSH1 0x0 DUP1 PUSH1 0x0 DUP1 PUSH1 0x0 DUP1 PUSH1 0xC0 DUP8 DUP10 SUB SLT ISZERO PUSH2 0xE9C JUMPI PUSH2 0xE9B PUSH2 0x15A8 JUMP JUMPDEST JUMPDEST PUSH1 0x0 PUSH2 0xEAA DUP10 DUP3 DUP11 ADD PUSH2 0xA9D JUMP JUMPDEST SWAP7 POP POP PUSH1 0x20 PUSH2 0xEBB DUP10 DUP3 DUP11 ADD PUSH2 0xC6E JUMP JUMPDEST SWAP6 POP POP PUSH1 0x40 PUSH2 0xECC DUP10 DUP3 DUP11 ADD PUSH2 0xC59 JUMP JUMPDEST SWAP5 POP POP PUSH1 0x60 PUSH2 0xEDD DUP10 DUP3 DUP11 ADD PUSH2 0xC59 JUMP JUMPDEST SWAP4 POP POP PUSH1 0x80 PUSH2 0xEEE DUP10 DUP3 DUP11 ADD PUSH2 0xC59 JUMP JUMPDEST SWAP3 POP POP PUSH1 0xA0 PUSH2 0xEFF DUP10 DUP3 DUP11 ADD PUSH2 0xC59 JUMP JUMPDEST SWAP2 POP POP SWAP3 SWAP6 POP SWAP3 SWAP6 POP SWAP3 SWAP6 JUMP JUMPDEST PUSH1 0x0 DUP1 PUSH1 0x0 PUSH1 0x40 DUP5 DUP7 SUB SLT ISZERO PUSH2 0xF25 JUMPI PUSH2 0xF24 PUSH2 0x15A8 JUMP JUMPDEST JUMPDEST PUSH1 0x0 DUP5 ADD CALLDATALOAD PUSH8 0xFFFFFFFFFFFFFFFF DUP2 GT ISZERO PUSH2 0xF43 JUMPI PUSH2 0xF42 PUSH2 0x15A3 JUMP JUMPDEST JUMPDEST PUSH2 0xF4F DUP7 DUP3 DUP8 ADD PUSH2 0xB4B JUMP JUMPDEST SWAP4 POP SWAP4 POP POP PUSH1 0x20 PUSH2 0xF62 DUP7 DUP3 DUP8 ADD PUSH2 0xA9D JUMP JUMPDEST SWAP2 POP POP SWAP3 POP SWAP3 POP SWAP3 JUMP JUMPDEST PUSH1 0x0 PUSH1 0x20 DUP3 DUP5 SUB SLT ISZERO PUSH2 0xF82 JUMPI PUSH2 0xF81 PUSH2 0x15A8 JUMP JUMPDEST JUMPDEST PUSH1 0x0 DUP3 ADD MLOAD PUSH8 0xFFFFFFFFFFFFFFFF DUP2 GT ISZERO PUSH2 0xFA0 JUMPI PUSH2 0xF9F PUSH2 0x15A3 JUMP JUMPDEST JUMPDEST PUSH2 0xFAC DUP5 DUP3 DUP6 ADD PUSH2 0xBA1 JUMP JUMPDEST SWAP2 POP POP SWAP3 SWAP2 POP POP JUMP JUMPDEST PUSH1 0x0 PUSH1 0x20 DUP3 DUP5 SUB SLT ISZERO PUSH2 0xFCB JUMPI PUSH2 0xFCA PUSH2 0x15A8 JUMP JUMPDEST JUMPDEST PUSH1 0x0 PUSH2 0xFD9 DUP5 DUP3 DUP6 ADD PUSH2 0xC6E JUMP JUMPDEST SWAP2 POP POP SWAP3 SWAP2 POP POP JUMP JUMPDEST PUSH1 0x0 PUSH2 0xFEE DUP4 DUP4 PUSH2 0xFFA JUMP JUMPDEST PUSH1 0x20 DUP4 ADD SWAP1 POP SWAP3 SWAP2 POP POP JUMP JUMPDEST PUSH2 0x1003 DUP2 PUSH2 0x1477 JUMP JUMPDEST DUP3 MSTORE POP POP JUMP JUMPDEST PUSH2 0x1012 DUP2 PUSH2 0x1477 JUMP JUMPDEST DUP3 MSTORE POP POP JUMP JUMPDEST PUSH1 0x0 PUSH2 0x1024 DUP4 DUP6 PUSH2 0x141C JUMP JUMPDEST SWAP4 POP PUSH2 0x102F DUP3 PUSH2 0x13FA JUMP JUMPDEST DUP1 PUSH1 0x0 JUMPDEST DUP6 DUP2 LT ISZERO PUSH2 0x1068 JUMPI PUSH2 0x1045 DUP3 DUP5 PUSH2 0x1460 JUMP JUMPDEST PUSH2 0x104F DUP9 DUP3 PUSH2 0xFE2 JUMP JUMPDEST SWAP8 POP PUSH2 0x105A DUP4 PUSH2 0x140F JUMP JUMPDEST SWAP3 POP POP PUSH1 0x1 DUP2 ADD SWAP1 POP PUSH2 0x1033 JUMP JUMPDEST POP DUP6 SWAP3 POP POP POP SWAP4 SWAP3 POP POP POP JUMP JUMPDEST PUSH2 0x107E DUP2 PUSH2 0x1489 JUMP JUMPDEST DUP3 MSTORE POP POP JUMP JUMPDEST PUSH2 0x108D DUP2 PUSH2 0x1495 JUMP JUMPDEST DUP3 MSTORE POP POP JUMP JUMPDEST PUSH1 0x0 PUSH2 0x109F DUP4 DUP6 PUSH2 0x143E JUMP JUMPDEST SWAP4 POP PUSH2 0x10AC DUP4 DUP6 DUP5 PUSH2 0x14E3 JUMP JUMPDEST PUSH2 0x10B5 DUP4 PUSH2 0x15AD JUMP JUMPDEST DUP5 ADD SWAP1 POP SWAP4 SWAP3 POP POP POP JUMP JUMPDEST PUSH1 0x0 PUSH2 0x10CB DUP3 PUSH2 0x1404 JUMP JUMPDEST PUSH2 0x10D5 DUP2 DUP6 PUSH2 0x142D JUMP JUMPDEST SWAP4 POP PUSH2 0x10E5 DUP2 DUP6 PUSH1 0x20 DUP7 ADD PUSH2 0x14F2 JUMP JUMPDEST PUSH2 0x10EE DUP2 PUSH2 0x15AD JUMP JUMPDEST DUP5 ADD SWAP2 POP POP SWAP3 SWAP2 POP POP JUMP JUMPDEST PUSH1 0x0 PUSH2 0x1105 DUP4 DUP6 PUSH2 0x144F JUMP JUMPDEST SWAP4 POP PUSH2 0x1112 DUP4 DUP6 DUP5 PUSH2 0x14E3 JUMP JUMPDEST PUSH2 0x111B DUP4 PUSH2 0x15AD JUMP JUMPDEST DUP5 ADD SWAP1 POP SWAP4 SWAP3 POP POP POP JUMP JUMPDEST PUSH1 0x0 PUSH1 0x60 DUP4 ADD PUSH1 0x0 DUP4 ADD MLOAD DUP5 DUP3 SUB PUSH1 0x0 DUP7 ADD MSTORE PUSH2 0x1143 DUP3 DUP3 PUSH2 0x10C0 JUMP JUMPDEST SWAP2 POP POP PUSH1 0x20 DUP4 ADD MLOAD DUP5 DUP3 SUB PUSH1 0x20 DUP7 ADD MSTORE PUSH2 0x115D DUP3 DUP3 PUSH2 0x10C0 JUMP JUMPDEST SWAP2 POP POP PUSH1 0x40 DUP4 ADD MLOAD DUP5 DUP3 SUB PUSH1 0x40 DUP7 ADD MSTORE PUSH2 0x1177 DUP3 DUP3 PUSH2 0x10C0 JUMP JUMPDEST SWAP2 POP POP DUP1 SWAP2 POP POP SWAP3 SWAP2 POP POP JUMP JUMPDEST PUSH2 0x118D DUP2 PUSH2 0x14BF JUMP JUMPDEST DUP3 MSTORE POP POP JUMP JUMPDEST PUSH2 0x119C DUP2 PUSH2 0x14CF JUMP JUMPDEST DUP3 MSTORE POP POP JUMP JUMPDEST PUSH1 0x0 PUSH1 0x20 DUP3 ADD SWAP1 POP PUSH2 0x11B7 PUSH1 0x0 DUP4 ADD DUP5 PUSH2 0x1075 JUMP JUMPDEST SWAP3 SWAP2 POP POP JUMP JUMPDEST PUSH1 0x0 PUSH1 0x20 DUP3 ADD SWAP1 POP PUSH2 0x11D2 PUSH1 0x0 DUP4 ADD DUP5 PUSH2 0x1084 JUMP JUMPDEST SWAP3 SWAP2 POP POP JUMP JUMPDEST PUSH1 0x0 PUSH1 0x60 DUP3 ADD SWAP1 POP PUSH2 0x11ED PUSH1 0x0 DUP4 ADD DUP7 PUSH2 0x1084 JUMP JUMPDEST PUSH2 0x11FA PUSH1 0x20 DUP4 ADD DUP6 PUSH2 0x1009 JUMP JUMPDEST PUSH2 0x1207 PUSH1 0x40 DUP4 ADD DUP5 PUSH2 0x1193 JUMP JUMPDEST SWAP5 SWAP4 POP POP POP POP JUMP JUMPDEST PUSH1 0x0 PUSH1 0x60 DUP3 ADD SWAP1 POP PUSH2 0x1224 PUSH1 0x0 DUP4 ADD DUP8 PUSH2 0x1084 JUMP JUMPDEST PUSH2 0x1231 PUSH1 0x20 DUP4 ADD DUP7 PUSH2 0x1193 JUMP JUMPDEST DUP2 DUP2 SUB PUSH1 0x40 DUP4 ADD MSTORE PUSH2 0x1244 DUP2 DUP5 DUP7 PUSH2 0x1018 JUMP JUMPDEST SWAP1 POP SWAP6 SWAP5 POP POP POP POP POP JUMP JUMPDEST PUSH1 0x0 PUSH1 0x80 DUP3 ADD SWAP1 POP PUSH2 0x1264 PUSH1 0x0 DUP4 ADD DUP8 PUSH2 0x1084 JUMP JUMPDEST PUSH2 0x1271 PUSH1 0x20 DUP4 ADD DUP7 PUSH2 0x1193 JUMP JUMPDEST PUSH2 0x127E PUSH1 0x40 DUP4 ADD DUP6 PUSH2 0x1084 JUMP JUMPDEST PUSH2 0x128B PUSH1 0x60 DUP4 ADD DUP5 PUSH2 0x1084 JUMP JUMPDEST SWAP6 SWAP5 POP POP POP POP POP JUMP JUMPDEST PUSH1 0x0 PUSH1 0x60 DUP3 ADD SWAP1 POP PUSH2 0x12A9 PUSH1 0x0 DUP4 ADD DUP8 PUSH2 0x1084 JUMP JUMPDEST PUSH2 0x12B6 PUSH1 0x20 DUP4 ADD DUP7 PUSH2 0x1193 JUMP JUMPDEST DUP2 DUP2 SUB PUSH1 0x40 DUP4 ADD MSTORE PUSH2 0x12C9 DUP2 DUP5 DUP7 PUSH2 0x1093 JUMP JUMPDEST SWAP1 POP SWAP6 SWAP5 POP POP POP POP POP JUMP JUMPDEST PUSH1 0x0 PUSH1 0xC0 DUP3 ADD SWAP1 POP PUSH2 0x12E9 PUSH1 0x0 DUP4 ADD DUP10 PUSH2 0x1084 JUMP JUMPDEST PUSH2 0x12F6 PUSH1 0x20 DUP4 ADD DUP9 PUSH2 0x1193 JUMP JUMPDEST PUSH2 0x1303 PUSH1 0x40 DUP4 ADD DUP8 PUSH2 0x1184 JUMP JUMPDEST PUSH2 0x1310 PUSH1 0x60 DUP4 ADD DUP7 PUSH2 0x1184 JUMP JUMPDEST PUSH2 0x131D PUSH1 0x80 DUP4 ADD DUP6 PUSH2 0x1184 JUMP JUMPDEST PUSH2 0x132A PUSH1 0xA0 DUP4 ADD DUP5 PUSH2 0x1184 JUMP JUMPDEST SWAP8 SWAP7 POP POP POP POP POP POP POP JUMP JUMPDEST PUSH1 0x0 PUSH1 0x40 DUP3 ADD SWAP1 POP DUP2 DUP2 SUB PUSH1 0x0 DUP4 ADD MSTORE PUSH2 0x1350 DUP2 DUP6 DUP8 PUSH2 0x10F9 JUMP JUMPDEST SWAP1 POP PUSH2 0x135F PUSH1 0x20 DUP4 ADD DUP5 PUSH2 0x1084 JUMP JUMPDEST SWAP5 SWAP4 POP POP POP POP JUMP JUMPDEST PUSH1 0x0 PUSH1 0x20 DUP3 ADD SWAP1 POP DUP2 DUP2 SUB PUSH1 0x0 DUP4 ADD MSTORE PUSH2 0x1381 DUP2 DUP5 PUSH2 0x1126 JUMP JUMPDEST SWAP1 POP SWAP3 SWAP2 POP POP JUMP JUMPDEST PUSH1 0x0 PUSH1 0x20 DUP3 ADD SWAP1 POP PUSH2 0x139E PUSH1 0x0 DUP4 ADD DUP5 PUSH2 0x1193 JUMP JUMPDEST SWAP3 SWAP2 POP POP JUMP JUMPDEST PUSH1 0x0 PUSH2 0x13AE PUSH2 0x13BF JUMP JUMPDEST SWAP1 POP PUSH2 0x13BA DUP3 DUP3 PUSH2 0x1525 JUMP JUMPDEST SWAP2 SWAP1 POP JUMP JUMPDEST PUSH1 0x0 PUSH1 0x40 MLOAD SWAP1 POP SWAP1 JUMP JUMPDEST PUSH1 0x0 PUSH8 0xFFFFFFFFFFFFFFFF DUP3 GT ISZERO PUSH2 0x13E4 JUMPI PUSH2 0x13E3 PUSH2 0x1556 JUMP JUMPDEST JUMPDEST PUSH2 0x13ED DUP3 PUSH2 0x15AD JUMP JUMPDEST SWAP1 POP PUSH1 0x20 DUP2 ADD SWAP1 POP SWAP2 SWAP1 POP JUMP JUMPDEST PUSH1 0x0 DUP2 SWAP1 POP SWAP2 SWAP1 POP JUMP JUMPDEST PUSH1 0x0 DUP2 MLOAD SWAP1 POP SWAP2 SWAP1 POP JUMP JUMPDEST PUSH1 0x0 PUSH1 0x20 DUP3 ADD SWAP1 POP SWAP2 SWAP1 POP JUMP JUMPDEST PUSH1 0x0 DUP3 DUP3 MSTORE PUSH1 0x20 DUP3 ADD SWAP1 POP SWAP3 SWAP2 POP POP JUMP JUMPDEST PUSH1 0x0 DUP3 DUP3 MSTORE PUSH1 0x20 DUP3 ADD SWAP1 POP SWAP3 SWAP2 POP POP JUMP JUMPDEST PUSH1 0x0 DUP3 DUP3 MSTORE PUSH1 0x20 DUP3 ADD SWAP1 POP SWAP3 SWAP2 POP POP JUMP JUMPDEST PUSH1 0x0 DUP3 DUP3 MSTORE PUSH1 0x20 DUP3 ADD SWAP1 POP SWAP3 SWAP2 POP POP JUMP JUMPDEST PUSH1 0x0 PUSH2 0x146F PUSH1 0x20 DUP5 ADD DUP5 PUSH2 0xA1D JUMP JUMPDEST SWAP1 POP SWAP3 SWAP2 POP POP JUMP JUMPDEST PUSH1 0x0 PUSH2 0x1482 DUP3 PUSH2 0x149F JUMP JUMPDEST SWAP1 POP SWAP2 SWAP1 POP JUMP JUMPDEST PUSH1 0x0 DUP2 ISZERO ISZERO SWAP1 POP SWAP2 SWAP1 POP JUMP JUMPDEST PUSH1 0x0 DUP2 SWAP1 POP SWAP2 SWAP1 POP JUMP JUMPDEST PUSH1 0x0 PUSH20 0xFFFFFFFFFFFFFFFFFFFFFFFFFFFFFFFFFFFFFFFF DUP3 AND SWAP1 POP SWAP2 SWAP1 POP JUMP JUMPDEST PUSH1 0x0 PUSH4 0xFFFFFFFF DUP3 AND SWAP1 POP SWAP2 SWAP1 POP JUMP JUMPDEST PUSH1 0x0 PUSH8 0xFFFFFFFFFFFFFFFF DUP3 AND SWAP1 POP SWAP2 SWAP1 POP JUMP JUMPDEST DUP3 DUP2 DUP4 CALLDATACOPY PUSH1 0x0 DUP4 DUP4 ADD MSTORE POP POP POP JUMP JUMPDEST PUSH1 0x0 JUMPDEST DUP4 DUP2 LT ISZERO PUSH2 0x1510 JUMPI DUP1 DUP3 ADD MLOAD DUP2 DUP5 ADD MSTORE PUSH1 0x20 DUP2 ADD SWAP1 POP PUSH2 0x14F5 JUMP JUMPDEST DUP4 DUP2 GT ISZERO PUSH2 0x151F JUMPI PUSH1 0x0 DUP5 DUP5 ADD MSTORE JUMPDEST POP POP POP POP JUMP JUMPDEST PUSH2 0x152E DUP3 PUSH2 0x15AD JUMP JUMPDEST DUP2 ADD DUP2 DUP2 LT PUSH8 0xFFFFFFFFFFFFFFFF DUP3 GT OR ISZERO PUSH2 0x154D JUMPI PUSH2 0x154C PUSH2 0x1556 JUMP JUMPDEST JUMPDEST DUP1 PUSH1 0x40 MSTORE POP POP POP JUMP JUMPDEST PUSH32 0x4E487B7100000000000000000000000000000000000000000000000000000000 PUSH1 0x0 MSTORE PUSH1 0x41 PUSH1 0x4 MSTORE PUSH1 0x24 PUSH1 0x0 REVERT JUMPDEST PUSH1 0x0 DUP1 REVERT JUMPDEST PUSH1 0x0 DUP1 REVERT JUMPDEST PUSH1 0x0 DUP1 REVERT JUMPDEST PUSH1 0x0 DUP1 REVERT JUMPDEST PUSH1 0x0 DUP1 REVERT JUMPDEST PUSH1 0x0 DUP1 REVERT JUMPDEST PUSH1 0x0 DUP1 REVERT JUMPDEST PUSH1 0x0 DUP1 REVERT JUMPDEST PUSH1 0x0 PUSH1 0x1F NOT PUSH1 0x1F DUP4 ADD AND SWAP1 POP SWAP2 SWAP1 POP JUMP JUMPDEST PUSH2 0x15C7 DUP2 PUSH2 0x1477 JUMP JUMPDEST DUP2 EQ PUSH2 0x15D2 JUMPI PUSH1 0x0 DUP1 REVERT JUMPDEST POP JUMP JUMPDEST PUSH2 0x15DE DUP2 PUSH2 0x1489 JUMP JUMPDEST DUP2 EQ PUSH2 0x15E9 JUMPI PUSH1 0x0 DUP1 REVERT JUMPDEST POP JUMP JUMPDEST PUSH2 0x15F5 DUP2 PUSH2 0x1495 JUMP JUMPDEST DUP2 EQ PUSH2 0x1600 JUMPI PUSH1 0x0 DUP1 REVERT JUMPDEST POP JUMP JUMPDEST PUSH2 0x160C DUP2 PUSH2 0x14BF JUMP JUMPDEST DUP2 EQ PUSH2 0x1617 JUMPI PUSH1 0x0 DUP1 REVERT JUMPDEST POP JUMP JUMPDEST PUSH2 0x1623 DUP2 PUSH2 0x14CF JUMP JUMPDEST DUP2 EQ PUSH2 0x162E JUMPI PUSH1 0x0 DUP1 REVERT JUMPDEST POP JUMP INVALID LOG2 PUSH5 0x6970667358 0x22 SLT KECCAK256 CALLER PUSH10 0xBBB90EF03F658E3096EE CALLVALUE 0x4C PUSH25 0x6C4CC85D31806C94DBB08F13CE191D33C764736F6C63430008 SMOD STOP CALLER "
		},
		"gasEstimates": {
			"creation": {
				"codeDepositCost": "1147000",
				"executionCost": "infinite",
				"totalCost": "infinite"
			},
			"external": {
				"createTask(string,bytes32)": "infinite",
				"getCommitment(bytes32,address,uint64)": "infinite",
				"joinRound(bytes32,uint64,bytes32,bytes32)": "infinite",
				"nop()": "366",
				"selectCandidates(bytes32,uint64,address[])": "infinite",
				"setMaxSSCommitmentLength(uint64)": "infinite",
				"setMaxWeightCommitmentLength(uint64)": "infinite",
				"startAggregate(bytes32,uint64,address[])": "infinite",
				"startRound(bytes32,uint64,uint32,uint32,uint32,uint32)": "infinite",
				"uploadSeedCommitment(bytes32,uint64,bytes)": "infinite",
				"uploadSkMaskCommitment(bytes32,uint64,bytes)": "infinite",
				"uploadWeightCommitment(bytes32,uint64,bytes)": "infinite"
			}
		},
		"methodIdentifiers": {
			"createTask(string,bytes32)": "75cb2a0e",
			"getCommitment(bytes32,address,uint64)": "8750745e",
			"joinRound(bytes32,uint64,bytes32,bytes32)": "bdf666a4",
			"nop()": "2e9c58bb",
			"selectCandidates(bytes32,uint64,address[])": "41e865cb",
			"setMaxSSCommitmentLength(uint64)": "d6f02142",
			"setMaxWeightCommitmentLength(uint64)": "b71b768d",
			"startAggregate(bytes32,uint64,address[])": "4956219b",
			"startRound(bytes32,uint64,uint32,uint32,uint32,uint32)": "57c91b95",
			"uploadSeedCommitment(bytes32,uint64,bytes)": "456523e2",
			"uploadSkMaskCommitment(bytes32,uint64,bytes)": "20f0672c",
			"uploadWeightCommitment(bytes32,uint64,bytes)": "68f14acf"
		}
	},
	"abi": [
		{
			"inputs": [
				{
					"internalType": "contract DeltaContract",
					"name": "ct",
					"type": "address"
				}
			],
			"stateMutability": "nonpayable",
			"type": "constructor"
		},
		{
			"inputs": [
				{
					"internalType": "string",
					"name": "dataSet",
					"type": "string"
				},
				{
					"internalType": "bytes32",
					"name": "tskCmmtmnt",
					"type": "bytes32"
				}
			],
			"name": "createTask",
			"outputs": [
				{
					"internalType": "bytes32",
					"name": "taskId",
					"type": "bytes32"
				}
			],
			"stateMutability": "payable",
			"type": "function"
		},
		{
			"inputs": [
				{
					"internalType": "bytes32",
					"name": "taskId",
					"type": "bytes32"
				},
				{
					"internalType": "address",
					"name": "clientaddress",
					"type": "address"
				},
				{
					"internalType": "uint64",
					"name": "round",
					"type": "uint64"
				}
			],
			"name": "getCommitment",
			"outputs": [
				{
					"components": [
						{
							"internalType": "bytes",
							"name": "weightCommitment",
							"type": "bytes"
						},
						{
							"internalType": "bytes",
							"name": "seedCmmtmnt",
							"type": "bytes"
						},
						{
							"internalType": "bytes",
							"name": "secretKeyMaskCmmtmnt",
							"type": "bytes"
						}
					],
					"internalType": "struct DeltaContract.CommitmentData",
					"name": "commitment",
					"type": "tuple"
				}
			],
			"stateMutability": "view",
			"type": "function"
		},
		{
			"inputs": [
				{
					"internalType": "bytes32",
					"name": "taskId",
					"type": "bytes32"
				},
				{
					"internalType": "uint64",
					"name": "round",
					"type": "uint64"
				},
				{
					"internalType": "bytes32",
					"name": "pk1",
					"type": "bytes32"
				},
				{
					"internalType": "bytes32",
					"name": "pk2",
					"type": "bytes32"
				}
			],
			"name": "joinRound",
			"outputs": [
				{
					"internalType": "bool",
					"name": "",
					"type": "bool"
				}
			],
			"stateMutability": "nonpayable",
			"type": "function"
		},
		{
			"inputs": [],
			"name": "nop",
			"outputs": [
				{
					"internalType": "bool",
					"name": "",
					"type": "bool"
				}
			],
			"stateMutability": "nonpayable",
			"type": "function"
		},
		{
			"inputs": [
				{
					"internalType": "bytes32",
					"name": "taskId",
					"type": "bytes32"
				},
				{
					"internalType": "uint64",
					"name": "round",
					"type": "uint64"
				},
				{
					"internalType": "address[]",
					"name": "cltaddrs",
					"type": "address[]"
				}
			],
			"name": "selectCandidates",
			"outputs": [],
			"stateMutability": "nonpayable",
			"type": "function"
		},
		{
			"inputs": [
				{
					"internalType": "uint64",
					"name": "maxLength",
					"type": "uint64"
				}
			],
			"name": "setMaxSSCommitmentLength",
			"outputs": [],
			"stateMutability": "nonpayable",
			"type": "function"
		},
		{
			"inputs": [
				{
					"internalType": "uint64",
					"name": "maxLength",
					"type": "uint64"
				}
			],
			"name": "setMaxWeightCommitmentLength",
			"outputs": [],
			"stateMutability": "nonpayable",
			"type": "function"
		},
		{
			"inputs": [
				{
					"internalType": "bytes32",
					"name": "taskId",
					"type": "bytes32"
				},
				{
					"internalType": "uint64",
					"name": "round",
					"type": "uint64"
				},
				{
					"internalType": "address[]",
					"name": "onlineClients",
					"type": "address[]"
				}
			],
			"name": "startAggregate",
			"outputs": [],
			"stateMutability": "nonpayable",
			"type": "function"
		},
		{
			"inputs": [
				{
					"internalType": "bytes32",
					"name": "taskId",
					"type": "bytes32"
				},
				{
					"internalType": "uint64",
					"name": "round",
					"type": "uint64"
				},
				{
					"internalType": "uint32",
					"name": "maxSample",
					"type": "uint32"
				},
				{
					"internalType": "uint32",
					"name": "minSample",
					"type": "uint32"
				},
				{
					"internalType": "uint32",
					"name": "joinTimeout",
					"type": "uint32"
				},
				{
					"internalType": "uint32",
					"name": "computTimeout",
					"type": "uint32"
				}
			],
			"name": "startRound",
			"outputs": [],
			"stateMutability": "nonpayable",
			"type": "function"
		},
		{
			"inputs": [
				{
					"internalType": "bytes32",
					"name": "taskId",
					"type": "bytes32"
				},
				{
					"internalType": "uint64",
					"name": "round",
					"type": "uint64"
				},
				{
					"internalType": "bytes",
					"name": "weightCommitment",
					"type": "bytes"
				}
			],
			"name": "uploadSeedCommitment",
			"outputs": [],
			"stateMutability": "nonpayable",
			"type": "function"
		},
		{
			"inputs": [
				{
					"internalType": "bytes32",
					"name": "taskId",
					"type": "bytes32"
				},
				{
					"internalType": "uint64",
					"name": "round",
					"type": "uint64"
				},
				{
					"internalType": "bytes",
					"name": "weightCommitment",
					"type": "bytes"
				}
			],
			"name": "uploadSkMaskCommitment",
			"outputs": [],
			"stateMutability": "nonpayable",
			"type": "function"
		},
		{
			"inputs": [
				{
					"internalType": "bytes32",
					"name": "taskId",
					"type": "bytes32"
				},
				{
					"internalType": "uint64",
					"name": "round",
					"type": "uint64"
				},
				{
					"internalType": "bytes",
					"name": "weightCommitment",
					"type": "bytes"
				}
			],
			"name": "uploadWeightCommitment",
			"outputs": [],
			"stateMutability": "nonpayable",
			"type": "function"
		}
	]
}