{
  "contractName": "HFLContract",
  "abi": [
    {
      "inputs": [
        {
          "internalType": "contract IdentityContract",
          "name": "_addr",
          "type": "address"
        }
      ],
      "stateMutability": "nonpayable",
      "type": "constructor"
    },
    {
      "anonymous": false,
      "inputs": [
        {
          "indexed": false,
          "internalType": "bytes32",
          "name": "taskId",
          "type": "bytes32"
        },
        {
          "indexed": false,
          "internalType": "uint64",
          "name": "round",
          "type": "uint64"
        },
        {
          "indexed": false,
          "internalType": "address[]",
          "name": "addrs",
          "type": "address[]"
        }
      ],
      "name": "AggregateStarted",
      "type": "event"
    },
    {
      "anonymous": false,
      "inputs": [
        {
          "indexed": false,
          "internalType": "bytes32",
          "name": "taskId",
          "type": "bytes32"
        },
        {
          "indexed": false,
          "internalType": "uint64",
          "name": "round",
          "type": "uint64"
        },
        {
          "indexed": false,
          "internalType": "address[]",
          "name": "addrs",
          "type": "address[]"
        }
      ],
      "name": "CalculateStarted",
      "type": "event"
    },
    {
      "anonymous": false,
      "inputs": [
        {
          "indexed": false,
          "internalType": "bytes32",
          "name": "taskId",
          "type": "bytes32"
        },
        {
          "indexed": false,
          "internalType": "uint64",
          "name": "round",
          "type": "uint64"
        },
        {
          "indexed": false,
          "internalType": "address",
          "name": "sender",
          "type": "address"
        },
        {
          "indexed": false,
          "internalType": "address",
          "name": "reciver",
          "type": "address"
        },
        {
          "indexed": false,
          "internalType": "string",
          "name": "contentType",
          "type": "string"
        },
        {
          "indexed": false,
          "internalType": "bytes",
          "name": "content",
          "type": "bytes"
        }
      ],
      "name": "ContentUploaded",
      "type": "event"
    },
    {
      "anonymous": false,
      "inputs": [
        {
          "indexed": true,
          "internalType": "address",
          "name": "oldOwner",
          "type": "address"
        },
        {
          "indexed": true,
          "internalType": "address",
          "name": "newOwner",
          "type": "address"
        }
      ],
      "name": "OwnerSet",
      "type": "event"
    },
    {
      "anonymous": false,
      "inputs": [
        {
          "indexed": false,
          "internalType": "bytes32",
          "name": "taskId",
          "type": "bytes32"
        },
        {
          "indexed": false,
          "internalType": "uint64",
          "name": "round",
          "type": "uint64"
        },
        {
          "indexed": false,
          "internalType": "address[]",
          "name": "addrs",
          "type": "address[]"
        }
      ],
      "name": "PartnerSelected",
      "type": "event"
    },
    {
      "anonymous": false,
      "inputs": [
        {
          "indexed": false,
          "internalType": "bytes32",
          "name": "taskId",
          "type": "bytes32"
        },
        {
          "indexed": false,
          "internalType": "uint64",
          "name": "round",
          "type": "uint64"
        }
      ],
      "name": "RoundEnd",
      "type": "event"
    },
    {
      "anonymous": false,
      "inputs": [
        {
          "indexed": false,
          "internalType": "bytes32",
          "name": "taskId",
          "type": "bytes32"
        },
        {
          "indexed": false,
          "internalType": "uint64",
          "name": "round",
          "type": "uint64"
        }
      ],
      "name": "RoundStart",
      "type": "event"
    },
    {
      "anonymous": false,
      "inputs": [
        {
          "indexed": true,
          "internalType": "address",
          "name": "creator",
          "type": "address"
        },
        {
          "indexed": false,
          "internalType": "bytes32",
          "name": "taskId",
          "type": "bytes32"
        },
        {
          "indexed": false,
          "internalType": "string",
          "name": "dataSet",
          "type": "string"
        },
        {
          "indexed": false,
          "internalType": "string",
          "name": "creatorUrl",
          "type": "string"
        },
        {
          "indexed": false,
          "internalType": "bytes32",
          "name": "commitment",
          "type": "bytes32"
        },
        {
          "indexed": false,
          "internalType": "string",
          "name": "taskType",
          "type": "string"
        }
      ],
      "name": "TaskCreated",
      "type": "event"
    },
    {
      "inputs": [],
      "name": "idContract",
      "outputs": [
        {
          "internalType": "contract IdentityContract",
          "name": "",
          "type": "address"
        }
      ],
      "stateMutability": "view",
      "type": "function",
      "constant": true
    },
    {
      "inputs": [
        {
          "internalType": "bytes32",
          "name": "taskId",
          "type": "bytes32"
        }
      ],
      "name": "getTaskData",
      "outputs": [
        {
          "components": [
            {
              "internalType": "address",
              "name": "creator",
              "type": "address"
            },
            {
              "internalType": "string",
              "name": "creatorUrl",
              "type": "string"
            },
            {
              "internalType": "string",
              "name": "dataSet",
              "type": "string"
            },
            {
              "internalType": "bytes32",
              "name": "commitment",
              "type": "bytes32"
            },
            {
              "internalType": "string",
              "name": "taskType",
              "type": "string"
            },
            {
              "internalType": "uint64",
              "name": "currentRound",
              "type": "uint64"
            }
          ],
          "internalType": "struct HFLContract.Task",
          "name": "task",
          "type": "tuple"
        }
      ],
      "stateMutability": "view",
      "type": "function",
      "constant": true
    },
    {
      "inputs": [
        {
          "internalType": "string",
          "name": "dataSet",
          "type": "string"
        },
        {
          "internalType": "bytes32",
          "name": "commitment",
          "type": "bytes32"
        },
        {
          "internalType": "string",
          "name": "taskType",
          "type": "string"
        }
      ],
      "name": "createTask",
      "outputs": [
        {
          "internalType": "bytes32",
          "name": "taskId",
          "type": "bytes32"
        }
      ],
      "stateMutability": "payable",
      "type": "function",
      "payable": true
    },
    {
      "inputs": [
        {
          "internalType": "bytes32",
          "name": "taskId",
          "type": "bytes32"
        },
        {
          "internalType": "uint64",
          "name": "round",
          "type": "uint64"
        },
        {
          "internalType": "uint32",
          "name": "maxSample",
          "type": "uint32"
        },
        {
          "internalType": "uint32",
          "name": "minSample",
          "type": "uint32"
        }
      ],
      "name": "startRound",
      "outputs": [],
      "stateMutability": "nonpayable",
      "type": "function"
    },
    {
      "inputs": [
        {
          "internalType": "bytes32",
          "name": "taskId",
          "type": "bytes32"
        },
        {
          "internalType": "uint64",
          "name": "round",
          "type": "uint64"
        },
        {
          "internalType": "bytes",
          "name": "pk1",
          "type": "bytes"
        },
        {
          "internalType": "bytes",
          "name": "pk2",
          "type": "bytes"
        }
      ],
      "name": "joinRound",
      "outputs": [
        {
          "internalType": "bool",
          "name": "",
          "type": "bool"
        }
      ],
      "stateMutability": "nonpayable",
      "type": "function"
    },
    {
      "inputs": [
        {
          "internalType": "bytes32",
          "name": "taskId",
          "type": "bytes32"
        },
        {
          "internalType": "uint64",
          "name": "round",
          "type": "uint64"
        },
        {
          "internalType": "address[]",
          "name": "candidateAddrs",
          "type": "address[]"
        }
      ],
      "name": "getClientPublickeys",
      "outputs": [
        {
          "components": [
            {
              "internalType": "bytes",
              "name": "pk1",
              "type": "bytes"
            },
            {
              "internalType": "bytes",
              "name": "pk2",
              "type": "bytes"
            }
          ],
          "internalType": "struct HFLContract.Candidate[]",
          "name": "",
          "type": "tuple[]"
        }
      ],
      "stateMutability": "view",
      "type": "function",
      "constant": true
    },
    {
      "inputs": [
        {
          "internalType": "bytes32",
          "name": "taskId",
          "type": "bytes32"
        },
        {
          "internalType": "uint64",
          "name": "round",
          "type": "uint64"
        }
      ],
      "name": "getTaskRound",
      "outputs": [
        {
          "components": [
            {
              "internalType": "uint64",
              "name": "currentRound",
              "type": "uint64"
            },
            {
              "internalType": "uint32",
              "name": "maxSample",
              "type": "uint32"
            },
            {
              "internalType": "uint32",
              "name": "minSample",
              "type": "uint32"
            },
            {
              "internalType": "uint8",
              "name": "status",
              "type": "uint8"
            },
            {
              "internalType": "address[]",
              "name": "joinedAddrs",
              "type": "address[]"
            }
          ],
          "internalType": "struct HFLContract.ExtCallTaskRoundStruct",
          "name": "taskround",
          "type": "tuple"
        }
      ],
      "stateMutability": "view",
      "type": "function",
      "constant": true
    },
    {
      "inputs": [
        {
          "internalType": "bytes32",
          "name": "taskId",
          "type": "bytes32"
        },
        {
          "internalType": "uint64",
          "name": "round",
          "type": "uint64"
        },
        {
          "internalType": "address[]",
          "name": "addrs",
          "type": "address[]"
        }
      ],
      "name": "selectCandidates",
      "outputs": [],
      "stateMutability": "nonpayable",
      "type": "function"
    },
    {
      "inputs": [
        {
          "internalType": "bytes32",
          "name": "taskId",
          "type": "bytes32"
        },
        {
          "internalType": "address",
          "name": "clientaddress",
          "type": "address"
        },
        {
          "internalType": "uint64",
          "name": "round",
          "type": "uint64"
        }
      ],
      "name": "getResultCommitment",
      "outputs": [
        {
          "internalType": "bytes",
          "name": "commitment",
          "type": "bytes"
        }
      ],
      "stateMutability": "view",
      "type": "function",
      "constant": true
    },
    {
      "inputs": [
        {
          "internalType": "bytes32",
          "name": "taskId",
          "type": "bytes32"
        },
        {
          "internalType": "uint64",
          "name": "round",
          "type": "uint64"
        },
        {
          "internalType": "address[]",
          "name": "senders",
          "type": "address[]"
        },
        {
          "internalType": "address",
          "name": "receiver",
          "type": "address"
        }
      ],
      "name": "getSecretSharingDatas",
      "outputs": [
        {
          "components": [
            {
              "internalType": "bytes",
              "name": "seedPiece",
              "type": "bytes"
            },
            {
              "internalType": "bytes",
              "name": "seedCommitment",
              "type": "bytes"
            },
            {
              "internalType": "bytes",
              "name": "secretKeyPiece",
              "type": "bytes"
            },
            {
              "internalType": "bytes",
              "name": "secretKeyMaskCommitment",
              "type": "bytes"
            }
          ],
          "internalType": "struct HFLContract.SSData[]",
          "name": "",
          "type": "tuple[]"
        }
      ],
      "stateMutability": "view",
      "type": "function",
      "constant": true
    },
    {
      "inputs": [
        {
          "internalType": "bytes32",
          "name": "taskId",
          "type": "bytes32"
        },
        {
          "internalType": "uint64",
          "name": "round",
          "type": "uint64"
        },
        {
          "internalType": "address[]",
          "name": "onlineClients",
          "type": "address[]"
        }
      ],
      "name": "startAggregate",
      "outputs": [],
      "stateMutability": "nonpayable",
      "type": "function"
    },
    {
      "inputs": [
        {
          "internalType": "bytes32",
          "name": "taskId",
          "type": "bytes32"
        },
        {
          "internalType": "uint64",
          "name": "round",
          "type": "uint64"
        },
        {
          "internalType": "address[]",
          "name": "onlineClients",
          "type": "address[]"
        }
      ],
      "name": "startCalculate",
      "outputs": [],
      "stateMutability": "nonpayable",
      "type": "function"
    },
    {
      "inputs": [
        {
          "internalType": "bytes32",
          "name": "taskId",
          "type": "bytes32"
        },
        {
          "internalType": "uint64",
          "name": "round",
          "type": "uint64"
        }
      ],
      "name": "endRound",
      "outputs": [],
      "stateMutability": "nonpayable",
      "type": "function"
    },
    {
      "inputs": [
        {
          "internalType": "bytes32",
          "name": "taskId",
          "type": "bytes32"
        },
        {
          "internalType": "uint64",
          "name": "round",
          "type": "uint64"
        },
        {
          "internalType": "bytes",
          "name": "resultCommitment",
          "type": "bytes"
        }
      ],
      "name": "uploadResultCommitment",
      "outputs": [],
      "stateMutability": "nonpayable",
      "type": "function"
    },
    {
      "inputs": [
        {
          "internalType": "bytes32",
          "name": "taskId",
          "type": "bytes32"
        },
        {
          "internalType": "uint64",
          "name": "round",
          "type": "uint64"
        },
        {
          "internalType": "address[]",
          "name": "receivers",
          "type": "address[]"
        },
        {
          "internalType": "bytes[]",
          "name": "seedCommitments",
          "type": "bytes[]"
        }
      ],
      "name": "uploadSeedCommitment",
      "outputs": [],
      "stateMutability": "nonpayable",
      "type": "function"
    },
    {
      "inputs": [
        {
          "internalType": "bytes32",
          "name": "taskId",
          "type": "bytes32"
        },
        {
          "internalType": "uint64",
          "name": "round",
          "type": "uint64"
        },
        {
          "internalType": "address[]",
          "name": "senders",
          "type": "address[]"
        },
        {
          "internalType": "bytes[]",
          "name": "seeds",
          "type": "bytes[]"
        }
      ],
      "name": "uploadSeed",
      "outputs": [],
      "stateMutability": "nonpayable",
      "type": "function"
    },
    {
      "inputs": [
        {
          "internalType": "bytes32",
          "name": "taskId",
          "type": "bytes32"
        },
        {
          "internalType": "uint64",
          "name": "round",
          "type": "uint64"
        },
        {
          "internalType": "address[]",
          "name": "receivers",
          "type": "address[]"
        },
        {
          "internalType": "bytes[]",
          "name": "secretKeyCommitments",
          "type": "bytes[]"
        }
      ],
      "name": "uploadSecretKeyCommitment",
      "outputs": [],
      "stateMutability": "nonpayable",
      "type": "function"
    },
    {
      "inputs": [
        {
          "internalType": "bytes32",
          "name": "taskId",
          "type": "bytes32"
        },
        {
          "internalType": "uint64",
          "name": "round",
          "type": "uint64"
        },
        {
          "internalType": "address[]",
          "name": "senders",
          "type": "address[]"
        },
        {
          "internalType": "bytes[]",
          "name": "secretkeyMasks",
          "type": "bytes[]"
        }
      ],
      "name": "uploadSecretkeyMask",
      "outputs": [],
      "stateMutability": "nonpayable",
      "type": "function"
    },
    {
      "inputs": [
        {
          "internalType": "uint64",
          "name": "maxLength",
          "type": "uint64"
        }
      ],
      "name": "setMaxWeightCommitmentLength",
      "outputs": [],
      "stateMutability": "nonpayable",
      "type": "function"
    },
    {
      "inputs": [
        {
          "internalType": "uint64",
          "name": "maxLength",
          "type": "uint64"
        }
      ],
      "name": "setMaxSSCommitmentLength",
      "outputs": [],
      "stateMutability": "nonpayable",
      "type": "function"
    },
    {
      "inputs": [],
      "name": "getMaxCommitmentsLength",
      "outputs": [
        {
          "internalType": "uint64",
          "name": "sslength",
          "type": "uint64"
        },
        {
          "internalType": "uint64",
          "name": "weightLength",
          "type": "uint64"
        }
      ],
      "stateMutability": "view",
      "type": "function",
      "constant": true
    },
    {
      "inputs": [
        {
          "internalType": "address",
          "name": "newOwner",
          "type": "address"
        }
      ],
      "name": "changeOwner",
      "outputs": [],
      "stateMutability": "nonpayable",
      "type": "function"
    },
    {
      "inputs": [],
      "name": "getOwner",
      "outputs": [
        {
          "internalType": "address",
          "name": "",
          "type": "address"
        }
      ],
      "stateMutability": "view",
      "type": "function",
      "constant": true
    }
  ],
  "bytecode": "0x6080604052600580546001608060020a0319166901000000000000a000001790553480156200002d57600080fd5b506040516200485e3803806200485e8339810160408190526200005091620000aa565b60008054600160a060020a0319908116600160a060020a03841617825560018054339216821790556040519091907f342827c97908e5e2f71151c08502a66d44b6f758e3ac2f1de95f02eb95f0a735908290a350620000dc565b600060208284031215620000bd57600080fd5b8151600160a060020a0381168114620000d557600080fd5b9392505050565b61477280620000ec6000396000f3fe60806040526004361061015d576000357c01000000000000000000000000000000000000000000000000000000009004806391d48f52116100d3578063c96525ac1161008c578063c96525ac146103f1578063d6f0214214610411578063e26e887114610431578063e36bb28c1461045e578063e49c9d431461048b578063ebd3e836146104ab57600080fd5b806391d48f52146103205780639bd3a86914610350578063a6f9dae114610371578063abf2013a14610391578063b194c028146103b1578063b71b768d146103d157600080fd5b80634893b362116101255780634893b362146102215780634956219b1461024e57806358af9f731461026e5780635d3d7e631461029b5780635ed14248146102d5578063893d20e81461030257600080fd5b806301bd72691461016257806307dcfa8e146101845780631fd38b83146101a45780633045a939146101c457806341e865cb14610201575b600080fd5b34801561016e57600080fd5b5061018261017d366004613815565b6104cb565b005b34801561019057600080fd5b5061018261019f366004613855565b61060e565b3480156101b057600080fd5b506101826101bf3660046138ec565b61096d565b3480156101d057600080fd5b506000546101e490600160a060020a031681565b604051600160a060020a0390911681526020015b60405180910390f35b34801561020d57600080fd5b5061018261021c366004613975565b610e1f565b34801561022d57600080fd5b5061024161023c366004613815565b611045565b6040516101f891906139ce565b34801561025a57600080fd5b50610182610269366004613975565b6111d7565b34801561027a57600080fd5b5061028e610289366004613a69565b61142a565b6040516101f89190613ade565b3480156102a757600080fd5b50600554604080516001604060020a03680100000000000000008404811682529092166020830152016101f8565b3480156102e157600080fd5b506102f56102f0366004613b8a565b6116b9565b6040516101f89190613bf8565b34801561030e57600080fd5b50600154600160a060020a03166101e4565b34801561032c57600080fd5b5061034061033b366004613cf2565b611b37565b60405190151581526020016101f8565b61036361035e366004613d69565b611e22565b6040519081526020016101f8565b34801561037d57600080fd5b5061018261038c366004613de2565b6120b6565b34801561039d57600080fd5b506101826103ac366004613975565b61214c565b3480156103bd57600080fd5b506101826103cc3660046138ec565b6122dd565b3480156103dd57600080fd5b506101826103ec366004613e04565b6126d9565b3480156103fd57600080fd5b5061018261040c3660046138ec565b612729565b34801561041d57600080fd5b5061018261042c366004613e04565b612bd3565b34801561043d57600080fd5b5061045161044c366004613975565b612c37565b6040516101f89190613e1f565b34801561046a57600080fd5b5061047e610479366004613e93565b612ee2565b6040516101f89190613ecf565b34801561049757600080fd5b506101826104a63660046138ec565b613098565b3480156104b757600080fd5b506101826104c6366004613ee2565b613494565b6000828152600260205260409020548290600160a060020a0316331461050f5760405160e560020a62461bcd02815260040161050690613f2f565b60405180910390fd5b6000838152600360205260409020805484918491600110801561053b575080546001604060020a038316105b61055a5760405160e560020a62461bcd02815260040161050690613f66565b600086815260036020526040812080546001604060020a03881690811061058357610583613f9d565b600091825260209182902060039190910201805470ff000000000000000000000000000000001916700400000000000000000000000000000000178155604080518a81526001604060020a038a169381019390935280519193507f8888bd37d0d00a7edbfa5f8aa6dc49a4770abad0de65453622b4792128fc40fa928290030190a150505050505050565b6000848152600260205260409020548490600160a060020a03166106475760405160e560020a62461bcd02815260040161050690613fcf565b6000858152600260205260409020548590600160a060020a031633146106825760405160e560020a62461bcd02815260040161050690613f2f565b600086815260036020526040902080546001604060020a038716146107385760405160e560020a62461bcd02815260206004820152604260248201527f74686520726f756e6420686173206265656e20616c726561647920737461727460448201527f6564206f72207468652070726520726f756e6420646f6573206e6f742065786960648201527f7374000000000000000000000000000000000000000000000000000000000000608482015260a401610506565b600087815260026020526040902060058101805467ffffffffffffffff19166001604060020a0389161790555b81541580610789575081546001604060020a038816906107879060019061401f565b105b1561079f57815460010182556000829052610765565b8682886001604060020a0316815481106107bb576107bb613f9d565b60009182526020909120600390910201805467ffffffffffffffff19166001604060020a03928316179055825487918491908a169081106107fe576107fe613f9d565b906000526020600020906003020160000160086101000a81548163ffffffff021916908363ffffffff1602179055508482886001604060020a03168154811061084957610849613f9d565b9060005260206000209060030201600001600c6101000a81548163ffffffff021916908363ffffffff160217905550600082886001604060020a03168154811061089557610895613f9d565b60009182526020909120600390910201805470ff000000000000000000000000000000001916608060020a8360048111156108d2576108d2613fb6565b021790555060008881526004602052604090205b8054158061090a575080546001604060020a038916906109089060019061401f565b105b15610920578054600101815560008190526108e6565b604080518a81526001604060020a038a1660208201527f442bd58918c05fbba21640a63d950e0ada0c085917a5c785fe24d66608972bd991015b60405180910390a1505050505050505050565b60008681526003602052604090208054879187916001108015610999575080546001604060020a038316105b6109b85760405160e560020a62461bcd02815260040161050690613f66565b858414610a305760405160e560020a62461bcd02815260206004820152602b60248201527f73656e64657273206c656e677468206973206e6f7420657175616c20746f207360448201527f65656473206c656e6774680000000000000000000000000000000000000000006064820152608401610506565b60005b84811015610add576000868683818110610a4f57610a4f613f9d565b9050602002810190610a619190614036565b9050118015610aac57506005546801000000000000000090046001604060020a0316868683818110610a9557610a95613f9d565b9050602002810190610aa79190614036565b905011155b610acb5760405160e560020a62461bcd0281526004016105069061407c565b80610ad5816140d9565b915050610a33565b50600089815260036020526040812080546001604060020a038b16908110610b0757610b07613f9d565b6000918252602090912060039182020191508154608060020a900460ff166004811115610b3657610b36613fb6565b14610b865760405160e560020a62461bcd02815260206004820152601660248201527f6e6f7420696e2075706c6f6164207373207068617365000000000000000000006044820152606401610506565b60008a8152600460205260408120805490919082906001604060020a038d16908110610bb457610bb4613f9d565b9060005260206000209060020201905060005b87811015610e105760008260010160008d8d85818110610be957610be9613f9d565b9050602002016020810190610bfe9190613de2565b600160a060020a031681526020808201929092526040908101600090812033825290925290206001018054610c32906140f4565b905011610c845760405160e560020a62461bcd02815260206004820152601c60248201527f6d7573742075706c6f616420636f6d6d69746d656e74206669727374000000006044820152606401610506565b8160010160008c8c84818110610c9c57610c9c613f9d565b9050602002016020810190610cb19190613de2565b600160a060020a031681526020808201929092526040908101600090812033825290925290208054610ce2906140f4565b159050610d045760405160e560020a62461bcd02815260040161050690614132565b888882818110610d1657610d16613f9d565b9050602002810190610d289190614036565b8360010160008e8e86818110610d4057610d40613f9d565b9050602002016020810190610d559190613de2565b600160a060020a03168152602080820192909252604090810160009081203382529092529020610d869290916136ec565b5060008051602061471d8339815191528d8d8d8d85818110610daa57610daa613f9d565b9050602002016020810190610dbf9190613de2565b338d8d87818110610dd257610dd2613f9d565b9050602002810190610de49190614036565b604051610df6969594939291906141b8565b60405180910390a180610e08816140d9565b915050610bc7565b50505050505050505050505050565b6000848152600260205260409020548490600160a060020a03163314610e5a5760405160e560020a62461bcd02815260040161050690613f2f565b60008581526003602052604090208054869186916001108015610e86575080546001604060020a038316105b610ea55760405160e560020a62461bcd02815260040161050690613f66565b84610ef55760405160e560020a62461bcd02815260206004820152601660248201527f4d7573742070726f7669646520616464726573736573000000000000000000006044820152606401610506565b600088815260036020526040812080546001604060020a038a16908110610f1e57610f1e613f9d565b9060005260206000209060030201905060005b86811015610ff05760008260010160008a8a85818110610f5357610f53613f9d565b9050602002016020810190610f689190613de2565b600160a060020a0316815260208101919091526040016000208054610f8c906140f4565b905011610fde5760405160e560020a62461bcd02815260206004820152601460248201527f43616e646964617465206d7573742065786973740000000000000000000000006044820152606401610506565b80610fe8816140d9565b915050610f31565b50805470ff000000000000000000000000000000001916608060020a1781556040517f25b2b0a6205a2793a55299d05c21fb9163d38054d6966d101c156acdc2d7c92f9061095a908b908b908b908b9061423c565b6040805160a081018252600080825260208083018290528284018290526060808401839052608084015285825260039052919091208054849184916001108015611098575080546001604060020a038316105b6110b75760405160e560020a62461bcd02815260040161050690613f66565b600086815260036020526040812080546001604060020a0388169081106110e0576110e0613f9d565b60009182526020918290206040805160a081018252600390930290910180546001604060020a038116845263ffffffff6801000000000000000082048116958501959095526c01000000000000000000000000810490941691830191909152925090606082019060ff608060020a90910416600481111561116357611163613fb6565b60ff168152602001826002018054806020026020016040519081016040528092919081815260200182805480156111c357602002820191906000526020600020905b8154600160a060020a031681526001909101906020018083116111a5575b505050505081525094505050505092915050565b6000848152600260205260409020548490600160a060020a031633146112125760405160e560020a62461bcd02815260040161050690613f2f565b6000858152600360205260409020805486918691600110801561123e575080546001604060020a038316105b61125d5760405160e560020a62461bcd02815260040161050690613f66565b600088815260036020526040812080546001604060020a038a1690811061128657611286613f9d565b60009182526020909120600390910201905060028154608060020a900460ff1660048111156112b7576112b7613fb6565b146113075760405160e560020a62461bcd02815260206004820152601b60248201527f43616c63756c6174696e6720686173206e6f74207374617274656400000000006044820152606401610506565b805470ff00000000000000000000000000000000191670030000000000000000000000000000000017815560005b868110156113f45760008260010160008a8a8581811061135757611357613f9d565b905060200201602081019061136c9190613de2565b600160a060020a0316815260208101919091526040016000208054611390906140f4565b9050116113e25760405160e560020a62461bcd02815260206004820152601460248201527f43616e646964617465206d7573742065786973740000000000000000000000006044820152606401610506565b806113ec816140d9565b915050611335565b507fa7c3d5c32db46529b13020e7508c4861d6c00a7b339c33d7ff5d9836dde4287f8989898960405161095a949392919061423c565b6114786040518060c001604052806000600160a060020a031681526020016060815260200160608152602001600080191681526020016060815260200160006001604060020a031681525090565b6000828152600260205260409020548290600160a060020a03166114b15760405160e560020a62461bcd02815260040161050690613fcf565b600083815260026020908152604091829020825160c081019093528054600160a060020a0316835260018101805491928401916114ed906140f4565b80601f0160208091040260200160405190810160405280929190818152602001828054611519906140f4565b80156115665780601f1061153b57610100808354040283529160200191611566565b820191906000526020600020905b81548152906001019060200180831161154957829003601f168201915b5050505050815260200160028201805461157f906140f4565b80601f01602080910402602001604051908101604052809291908181526020018280546115ab906140f4565b80156115f85780601f106115cd576101008083540402835291602001916115f8565b820191906000526020600020905b8154815290600101906020018083116115db57829003601f168201915b505050505081526020016003820154815260200160048201805461161b906140f4565b80601f0160208091040260200160405190810160405280929190818152602001828054611647906140f4565b80156116945780601f1061166957610100808354040283529160200191611694565b820191906000526020600020905b81548152906001019060200180831161167757829003601f168201915b5050509183525050600591909101546001604060020a03166020909101529392505050565b60008581526003602052604090208054606091879187919060011080156116e9575080546001604060020a038316105b6117085760405160e560020a62461bcd02815260040161050690613f66565b600089815260046020526040902080548a918a916001604060020a038316106117465760405160e560020a62461bcd02815260040161050690614298565b60008c815260046020526040902080546001604060020a038d1611156117815760405160e560020a62461bcd02815260040161050690614298565b6000818d6001604060020a03168154811061179e5761179e613f9d565b60009182526020822060029091020191508b6001604060020a038111156117c7576117c76142cf565b60405190808252806020026020018201604052801561182357816020015b6118106040518060800160405280606081526020016060815260200160608152602001606081525090565b8152602001906001900390816117e55790505b50905060005b8c811015611b24578260010160008f8f8481811061184957611849613f9d565b905060200201602081019061185e9190613de2565b600160a060020a0316600160a060020a0316815260200190815260200160002060008d600160a060020a0316600160a060020a031681526020019081526020016000206040518060800160405290816000820180546118bc906140f4565b80601f01602080910402602001604051908101604052809291908181526020018280546118e8906140f4565b80156119355780601f1061190a57610100808354040283529160200191611935565b820191906000526020600020905b81548152906001019060200180831161191857829003601f168201915b5050505050815260200160018201805461194e906140f4565b80601f016020809104026020016040519081016040528092919081815260200182805461197a906140f4565b80156119c75780601f1061199c576101008083540402835291602001916119c7565b820191906000526020600020905b8154815290600101906020018083116119aa57829003601f168201915b505050505081526020016002820180546119e0906140f4565b80601f0160208091040260200160405190810160405280929190818152602001828054611a0c906140f4565b8015611a595780601f10611a2e57610100808354040283529160200191611a59565b820191906000526020600020905b815481529060010190602001808311611a3c57829003601f168201915b50505050508152602001600382018054611a72906140f4565b80601f0160208091040260200160405190810160405280929190818152602001828054611a9e906140f4565b8015611aeb5780601f10611ac057610100808354040283529160200191611aeb565b820191906000526020600020905b815481529060010190602001808311611ace57829003601f168201915b505050505081525050828281518110611b0657611b06613f9d565b60200260200101819052508080611b1c906140d9565b915050611829565b509e9d5050505050505050505050505050565b6000868152600260205260408120548790600160a060020a0316611b705760405160e560020a62461bcd02815260040161050690613fcf565b60008881526003602052604090208054899189916001108015611b9c575080546001604060020a038316105b611bbb5760405160e560020a62461bcd02815260040161050690613f66565b60008b815260036020526040812080549091908290611bdc9060019061401f565b81548110611bec57611bec613f9d565b906000526020600020906003020190508b6001604060020a031660018380549050611c17919061401f565b148015611c40575060008154608060020a900460ff166004811115611c3e57611c3e613fb6565b145b611c8f5760405160e560020a62461bcd02815260206004820152601560248201527f6a6f696e207068617365206861732070617373656400000000000000000000006044820152606401610506565b33600090815260018201602052604090208054611cab906140f4565b159050611d235760405160e560020a62461bcd02815260206004820152602960248201527f43616e6e6f74206a6f696e207468652073616d6520726f756e64206d756c746960448201527f706c652074696d657300000000000000000000000000000000000000000000006064820152608401610506565b6040805160606020601f8e01819004028201810183529181018c815290918291908e908e9081908501838280828437600092019190915250505090825250604080516020601f8d018190048102820181019092528b815291810191908c908c90819084018382808284376000920182905250939094525050338152600184016020908152604090912083518051919350611dc1928492910190613770565b506020828101518051611dda9260018501920190613770565b5050506002018054600181810183556000928352602090922001805473ffffffffffffffffffffffffffffffffffffffff191633179055955050505050509695505050505050565b60008043338888888888604051602001611e4297969594939291906142e8565b60408051808303601f19018152908290528051602090910120600080547f582115fb00000000000000000000000000000000000000000000000000000000845233600485015291935091600160a060020a039091169063582115fb90602401600060405180830381865afa158015611ebe573d6000803e3d6000fd5b505050506040513d6000823e601f3d908101601f19168201604052611ee691908101906143bf565b90506040518060c0016040528033600160a060020a031681526020018260000151815260200189898080601f016020809104026020016040519081016040528093929190818152602001838380828437600092019190915250505090825250602080820189905260408051601f890183900483028101830182528881529201919088908890819084018382808284376000920182905250938552505050602091820181905284815260028252604090208251815473ffffffffffffffffffffffffffffffffffffffff1916600160a060020a039091161781558282015180519192611fd992600185019290910190613770565b5060408201518051611ff5916002840191602090910190613770565b50606082015160038201556080820151805161201b916004840191602090910190613770565b5060a091909101516005909101805467ffffffffffffffff19166001604060020a03909216919091179055600082815260036020526040808220805460010181559182905282519051939450849333917f8e25935a9ec6d103bff2bb6b248969c0cf317603fad46413c940773b5754cb3a916120a29187918e918e918e908e908e90614465565b60405180910390a250505095945050505050565b600154600160a060020a031633146120e35760405160e560020a62461bcd028152600401610506906144ac565b600154604051600160a060020a038084169216907f342827c97908e5e2f71151c08502a66d44b6f758e3ac2f1de95f02eb95f0a73590600090a36001805473ffffffffffffffffffffffffffffffffffffffff1916600160a060020a0392909216919091179055565b6000848152600260205260409020548490600160a060020a031633146121875760405160e560020a62461bcd02815260040161050690613f2f565b600085815260036020526040902080548691869160011080156121b3575080546001604060020a038316105b6121d25760405160e560020a62461bcd02815260040161050690613f66565b600088815260036020526040812080546001604060020a038a169081106121fb576121fb613f9d565b60009182526020909120600390910201905060018154608060020a900460ff16600481111561222c5761222c613fb6565b1461227c5760405160e560020a62461bcd02815260206004820152601d60248201527f5468697320726f756e64206973206e6f742072756e6e696e67206e6f770000006044820152606401610506565b805470ff0000000000000000000000000000000019167002000000000000000000000000000000001781556040517fbc9bba2269f8b18f4ff8765379774de8dc70369c61ed47583189768c35d9e58d9061095a908b908b908b908b9061423c565b60008681526003602052604090208054879187916001108015612309575080546001604060020a038316105b6123285760405160e560020a62461bcd02815260040161050690613f66565b8584146123a05760405160e560020a62461bcd02815260206004820152603760248201527f726563656976657273206c656e677468206973206e6f7420657175616c20746f60448201527f2073656564436f6d6d69746d656e7473206c656e6774680000000000000000006064820152608401610506565b60005b8481101561244d5760008686838181106123bf576123bf613f9d565b90506020028101906123d19190614036565b905011801561241c57506005546801000000000000000090046001604060020a031686868381811061240557612405613f9d565b90506020028101906124179190614036565b905011155b61243b5760405160e560020a62461bcd0281526004016105069061407c565b80612445816140d9565b9150506123a3565b50600089815260036020526040812080546001604060020a038b1690811061247757612477613f9d565b60009182526020909120600390910201905060018154608060020a900460ff1660048111156124a8576124a8613fb6565b146124f85760405160e560020a62461bcd02815260206004820152601b60248201527f6e6f7420696e207365637265742073686172696e6720706861736500000000006044820152606401610506565b60008a8152600460205260408120805490919082906001604060020a038d1690811061252657612526613f9d565b9060005260206000209060020201905060005b87811015610e10573360009081526001830160205260408120908c8c8481811061256557612565613f9d565b905060200201602081019061257a9190613de2565b600160a060020a0316600160a060020a0316815260200190815260200160002060010180546125a8906140f4565b1590506125ca5760405160e560020a62461bcd028152600401610506906144e3565b8888828181106125dc576125dc613f9d565b90506020028101906125ee9190614036565b3360009081526001850160205260408120908e8e8681811061261257612612613f9d565b90506020020160208101906126279190613de2565b600160a060020a03168152602081019190915260400160002061264f926001909101916136ec565b5060008051602061471d8339815191528d8d338e8e8681811061267457612674613f9d565b90506020020160208101906126899190613de2565b8d8d8781811061269b5761269b613f9d565b90506020028101906126ad9190614036565b6040516126bf96959493929190614540565b60405180910390a1806126d1816140d9565b915050612539565b600154600160a060020a031633146127065760405160e560020a62461bcd028152600401610506906144ac565b6005805467ffffffffffffffff19166001604060020a0392909216919091179055565b60008681526003602052604090208054879187916001108015612755575080546001604060020a038316105b6127745760405160e560020a62461bcd02815260040161050690613f66565b8584146127ec5760405160e560020a62461bcd02815260206004820152603460248201527f73656e64657273206c656e677468206973206e6f7420657175616c20746f207360448201527f65637265746b65794d61736b73206c656e6774680000000000000000000000006064820152608401610506565b60005b8481101561289957600086868381811061280b5761280b613f9d565b905060200281019061281d9190614036565b905011801561286857506005546801000000000000000090046001604060020a031686868381811061285157612851613f9d565b90506020028101906128639190614036565b905011155b6128875760405160e560020a62461bcd0281526004016105069061407c565b80612891816140d9565b9150506127ef565b50600089815260036020526040812080546001604060020a038b169081106128c3576128c3613f9d565b6000918252602090912060039182020191508154608060020a900460ff1660048111156128f2576128f2613fb6565b146129425760405160e560020a62461bcd02815260206004820152601660248201527f6e6f7420696e2075706c6f6164207373207068617365000000000000000000006044820152606401610506565b60008a8152600460205260408120805490919082906001604060020a038d1690811061297057612970613f9d565b9060005260206000209060020201905060005b87811015610e105760008260010160008d8d858181106129a5576129a5613f9d565b90506020020160208101906129ba9190613de2565b600160a060020a0316815260208082019290925260409081016000908120338252909252902060030180546129ee906140f4565b905011612a405760405160e560020a62461bcd02815260206004820152601c60248201527f6d7573742075706c6f616420636f6d6d69746d656e74206669727374000000006044820152606401610506565b8160010160008c8c84818110612a5857612a58613f9d565b9050602002016020810190612a6d9190613de2565b600160a060020a031681526020808201929092526040908101600090812033825290925290206002018054612aa1906140f4565b159050612ac35760405160e560020a62461bcd02815260040161050690614132565b888882818110612ad557612ad5613f9d565b9050602002810190612ae79190614036565b8360010160008e8e86818110612aff57612aff613f9d565b9050602002016020810190612b149190613de2565b600160a060020a03168152602080820192909252604090810160009081203382529092529020612b49926002909101916136ec565b5060008051602061471d8339815191528d8d8d8d85818110612b6d57612b6d613f9d565b9050602002016020810190612b829190613de2565b338d8d87818110612b9557612b95613f9d565b9050602002810190612ba79190614036565b604051612bb9969594939291906145b7565b60405180910390a180612bcb816140d9565b915050612983565b600154600160a060020a03163314612c005760405160e560020a62461bcd028152600401610506906144ac565b600580546001604060020a0390921668010000000000000000026fffffffffffffffff000000000000000019909216919091179055565b6000848152600360205260409020805460609186918691906001108015612c67575080546001604060020a038316105b612c865760405160e560020a62461bcd02815260040161050690613f66565b6000856001604060020a03811115612ca057612ca06142cf565b604051908082528060200260200182016040528015612ce557816020015b6040805180820190915260608082526020820152815260200190600190039081612cbe5790505b50905060005b86811015612ed55760008a815260036020526040902080546001604060020a038b16908110612d1c57612d1c613f9d565b90600052602060002090600302016001016000898984818110612d4157612d41613f9d565b9050602002016020810190612d569190613de2565b600160a060020a0316600160a060020a03168152602001908152602001600020604051806040016040529081600082018054612d91906140f4565b80601f0160208091040260200160405190810160405280929190818152602001828054612dbd906140f4565b8015612e0a5780601f10612ddf57610100808354040283529160200191612e0a565b820191906000526020600020905b815481529060010190602001808311612ded57829003601f168201915b50505050508152602001600182018054612e23906140f4565b80601f0160208091040260200160405190810160405280929190818152602001828054612e4f906140f4565b8015612e9c5780601f10612e7157610100808354040283529160200191612e9c565b820191906000526020600020905b815481529060010190602001808311612e7f57829003601f168201915b505050505081525050828281518110612eb757612eb7613f9d565b60200260200101819052508080612ecd906140d9565b915050612ceb565b5098975050505050505050565b6000838152600360205260409020805460609185918491906001108015612f12575080546001604060020a038316105b612f315760405160e560020a62461bcd02815260040161050690613f66565b60008781526004602052604090208054889187916001604060020a03831610612f6f5760405160e560020a62461bcd02815260040161050690614298565b60008a815260046020526040902080546001604060020a038a161115612faa5760405160e560020a62461bcd02815260040161050690614298565b6000818a6001604060020a031681548110612fc757612fc7613f9d565b906000526020600020906002020190508060000160008c600160a060020a0316600160a060020a031681526020019081526020016000208054613009906140f4565b80601f0160208091040260200160405190810160405280929190818152602001828054613035906140f4565b80156130825780601f1061305757610100808354040283529160200191613082565b820191906000526020600020905b81548152906001019060200180831161306557829003601f168201915b5050505050985050505050505050509392505050565b600086815260036020526040902080548791879160011080156130c4575080546001604060020a038316105b6130e35760405160e560020a62461bcd02815260040161050690613f66565b85841461315b5760405160e560020a62461bcd02815260206004820152603c60248201527f726563656976657273206c656e677468206973206e6f7420657175616c20746f60448201527f207365637265744b6579436f6d6d69746d656e7473206c656e677468000000006064820152608401610506565b60005b8481101561320857600086868381811061317a5761317a613f9d565b905060200281019061318c9190614036565b90501180156131d757506005546801000000000000000090046001604060020a03168686838181106131c0576131c0613f9d565b90506020028101906131d29190614036565b905011155b6131f65760405160e560020a62461bcd0281526004016105069061407c565b80613200816140d9565b91505061315e565b50600089815260036020526040812080546001604060020a038b1690811061323257613232613f9d565b60009182526020909120600390910201905060018154608060020a900460ff16600481111561326357613263613fb6565b146132b35760405160e560020a62461bcd02815260206004820152601b60248201527f6e6f7420696e207365637265742073686172696e6720706861736500000000006044820152606401610506565b60008a8152600460205260408120805490919082906001604060020a038d169081106132e1576132e1613f9d565b9060005260206000209060020201905060005b87811015610e10573360009081526001830160205260408120908c8c8481811061332057613320613f9d565b90506020020160208101906133359190613de2565b600160a060020a0316600160a060020a031681526020019081526020016000206003018054613363906140f4565b1590506133855760405160e560020a62461bcd028152600401610506906144e3565b88888281811061339757613397613f9d565b90506020028101906133a99190614036565b3360009081526001850160205260408120908e8e868181106133cd576133cd613f9d565b90506020020160208101906133e29190613de2565b600160a060020a03168152602081019190915260400160002061340a926003909101916136ec565b5060008051602061471d8339815191528d8d338e8e8681811061342f5761342f613f9d565b90506020020160208101906134449190613de2565b8d8d8781811061345657613456613f9d565b90506020028101906134689190614036565b60405161347a9695949392919061462e565b60405180910390a18061348c816140d9565b9150506132f4565b600084815260036020526040902080548591859160011080156134c0575080546001604060020a038316105b6134df5760405160e560020a62461bcd02815260040161050690613f66565b83158015906134f957506005546001604060020a03168411155b6135185760405160e560020a62461bcd0281526004016105069061407c565b600087815260036020526040812080546001604060020a03891690811061354157613541613f9d565b60009182526020909120600390910201905060028154608060020a900460ff16600481111561357257613572613fb6565b146135c25760405160e560020a62461bcd02815260206004820152601660248201527f6e6f7420696e2075706c6f6164696e67207068617365000000000000000000006044820152606401610506565b6000888152600460205260408120805490919082906001604060020a038b169081106135f0576135f0613f9d565b60009182526020808320338452600290920290910190819052604090912080549192509061361d906140f4565b1590506136955760405160e560020a62461bcd02815260206004820152602d60248201527f63616e6e6f742075706c6f616420776569676874436f6d6d69746d656e74206d60448201527f756c7469706c652074696d6573000000000000000000000000000000000000006064820152608401610506565b3360009081526020829052604090206136af9089896136ec565b5060008051602061471d8339815191528a8a3360008c8c6040516136d8969594939291906146a5565b60405180910390a150505050505050505050565b8280546136f8906140f4565b90600052602060002090601f01602090048101928261371a5760008555613760565b82601f106137335782800160ff19823516178555613760565b82800160010185558215613760579182015b82811115613760578235825591602001919060010190613745565b5061376c9291506137e4565b5090565b82805461377c906140f4565b90600052602060002090601f01602090048101928261379e5760008555613760565b82601f106137b757805160ff1916838001178555613760565b82800160010185558215613760579182015b828111156137605782518255916020019190600101906137c9565b5b8082111561376c57600081556001016137e5565b80356001604060020a038116811461381057600080fd5b919050565b6000806040838503121561382857600080fd5b82359150613838602084016137f9565b90509250929050565b803563ffffffff8116811461381057600080fd5b6000806000806080858703121561386b57600080fd5b8435935061387b602086016137f9565b925061388960408601613841565b915061389760608601613841565b905092959194509250565b60008083601f8401126138b457600080fd5b5081356001604060020a038111156138cb57600080fd5b60208301915083602080830285010111156138e557600080fd5b9250929050565b6000806000806000806080878903121561390557600080fd5b86359550613915602088016137f9565b945060408701356001604060020a038082111561393157600080fd5b61393d8a838b016138a2565b9096509450606089013591508082111561395657600080fd5b5061396389828a016138a2565b979a9699509497509295939492505050565b6000806000806060858703121561398b57600080fd5b8435935061399b602086016137f9565b925060408501356001604060020a038111156139b657600080fd5b6139c2878288016138a2565b95989497509550505050565b6000602080835260c083016001604060020a03855116828501528185015163ffffffff8082166040870152806040880151166060870152505060ff6060860151166080850152608085015160a08086015281815180845260e0870191508483019350600092505b80831015613a5e578351600160a060020a03168252928401926001929092019190840190613a35565b509695505050505050565b600060208284031215613a7b57600080fd5b5035919050565b60005b83811015613a9d578181015183820152602001613a85565b83811115613aac576000848401525b50505050565b60008151808452613aca816020860160208601613a82565b601f01601f19169290920160200192915050565b60208152600160a060020a0382511660208201526000602083015160c06040840152613b0d60e0840182613ab2565b90506040840151601f1980858403016060860152613b2b8383613ab2565b92506060860151608086015260808601519150808584030160a086015250613b538282613ab2565b9150506001604060020a0360a08501511660c08401528091505092915050565b8035600160a060020a038116811461381057600080fd5b600080600080600060808688031215613ba257600080fd5b85359450613bb2602087016137f9565b935060408601356001604060020a03811115613bcd57600080fd5b613bd9888289016138a2565b9094509250613bec905060608701613b73565b90509295509295909350565b60208082528251828201819052600091906040908185019080840286018301878501865b83811015613ca357603f19898403018552815160808151818652613c4282870182613ab2565b915050888201518582038a870152613c5a8282613ab2565b9150508782015185820389870152613c728282613ab2565b91505060608083015192508582038187015250613c8f8183613ab2565b968901969450505090860190600101613c1c565b509098975050505050505050565b60008083601f840112613cc357600080fd5b5081356001604060020a03811115613cda57600080fd5b6020830191508360208285010111156138e557600080fd5b60008060008060008060808789031215613d0b57600080fd5b86359550613d1b602088016137f9565b945060408701356001604060020a0380821115613d3757600080fd5b613d438a838b01613cb1565b90965094506060890135915080821115613d5c57600080fd5b5061396389828a01613cb1565b600080600080600060608688031215613d8157600080fd5b85356001604060020a0380821115613d9857600080fd5b613da489838a01613cb1565b9097509550602088013594506040880135915080821115613dc457600080fd5b50613dd188828901613cb1565b969995985093965092949392505050565b600060208284031215613df457600080fd5b613dfd82613b73565b9392505050565b600060208284031215613e1657600080fd5b613dfd826137f9565b60208082528251828201819052600091906040908185019080840286018301878501865b83811015613ca357888303603f1901855281518051878552613e6788860182613ab2565b91890151858303868b0152919050613e7f8183613ab2565b968901969450505090860190600101613e43565b600080600060608486031215613ea857600080fd5b83359250613eb860208501613b73565b9150613ec6604085016137f9565b90509250925092565b602081526000613dfd6020830184613ab2565b60008060008060608587031215613ef857600080fd5b84359350613f08602086016137f9565b925060408501356001604060020a03811115613f2357600080fd5b6139c287828801613cb1565b6020808252601d908201527f4d7573742063616c6c656420627920746865207461736b206f776e6572000000604082015260600190565b60208082526019908201527f7468697320726f756e6420646f6573206e6f7420657869737400000000000000604082015260600190565b60e060020a634e487b7102600052603260045260246000fd5b60e060020a634e487b7102600052602160045260246000fd5b6020808252600f908201527f5461736b206e6f74206578697374730000000000000000000000000000000000604082015260600190565b60e060020a634e487b7102600052601160045260246000fd5b60008282101561403157614031614006565b500390565b6000808335601e1984360301811261404d57600080fd5b8301803591506001604060020a0382111561406757600080fd5b6020019150368190038213156138e557600080fd5b6020808252602e908201527f636f6d6d69746d656e74206c656e6774682065786365656473206c696d69742060408201527f6f7220697420697320656d707479000000000000000000000000000000000000606082015260800190565b60006000198214156140ed576140ed614006565b5060010190565b60028104600182168061410857607f821691505b6020821081141561412c5760e060020a634e487b7102600052602260045260246000fd5b50919050565b60208082526021908201527f63616e6e6f742075706c6f61642073656564206d756c7469706c652074696d6560408201527f7300000000000000000000000000000000000000000000000000000000000000606082015260800190565b81835281816020850137506000828201602090810191909152601f909101601f19169091010190565b8681526001604060020a03861660208201526000600160a060020a03808716604084015280861660608401525060c06080830152600460c08301527f534545440000000000000000000000000000000000000000000000000000000060e08301526101008060a084015261422f818401858761418f565b9998505050505050505050565b60006060820186835260206001604060020a03871681850152606060408501528185835260808501905086925060005b86811015612ed557600160a060020a0361428585613b73565b168252928201929082019060010161426c565b6020808252601a908201527f546865205461736b20526f756e64204d75737420657869737473000000000000604082015260600190565b60e060020a634e487b7102600052604160045260246000fd5b878152600160a060020a038716602082015260a06040820152600061431160a08301878961418f565b856060840152828103608084015261432a81858761418f565b9a9950505050505050505050565b600082601f83011261434957600080fd5b81516001604060020a0380821115614363576143636142cf565b604051601f8301601f19908116603f0116810190828211818310171561438b5761438b6142cf565b816040528381528660208588010111156143a457600080fd5b6143b5846020830160208901613a82565b9695505050505050565b6000602082840312156143d157600080fd5b81516001604060020a03808211156143e857600080fd5b90830190604082860312156143fc57600080fd5b604051604081018181108382111715614417576144176142cf565b60405282518281111561442957600080fd5b61443587828601614338565b82525060208301518281111561444a57600080fd5b61445687828601614338565b60208301525095945050505050565b87815260a06020820152600061447f60a08301888a61418f565b82810360408401526144918188613ab2565b9050856060840152828103608084015261432a81858761418f565b60208082526013908201527f43616c6c6572206973206e6f74206f776e657200000000000000000000000000604082015260600190565b60208082526026908201527f63616e6e6f742075706c6f6164207365656420636d6d74206d756c7469706c6560408201527f2074696d65730000000000000000000000000000000000000000000000000000606082015260800190565b8681526001604060020a03861660208201526000600160a060020a03808716604084015280861660608401525060c06080830152600860c08301527f53454544434d4d5400000000000000000000000000000000000000000000000060e08301526101008060a084015261422f818401858761418f565b8681526001604060020a03861660208201526000600160a060020a03808716604084015280861660608401525060c06080830152600660c08301527f534b4d41534b000000000000000000000000000000000000000000000000000060e08301526101008060a084015261422f818401858761418f565b8681526001604060020a03861660208201526000600160a060020a03808716604084015280861660608401525060c06080830152600a60c08301527f534b4d41534b434d4d540000000000000000000000000000000000000000000060e08301526101008060a084015261422f818401858761418f565b8681526001604060020a03861660208201526000600160a060020a03808716604084015280861660608401525060c06080830152600660c08301527f574549474854000000000000000000000000000000000000000000000000000060e08301526101008060a084015261422f818401858761418f56feeb99944e87d6d60f29399426ac461b929aaa92b0fec2ae9a6f04bc90b0c3d5aaa2646970667358221220090bb9e40e9f0d8db0e872ae690750129888dc252b68918d4c1c9c5034575a9f64736f6c634300080a0033",
  "immutableReferences": {},
  "source": "// SPDX-License-Identifier: GPL-3.0\n\npragma solidity >=0.7.0 <0.9.0;\n\nimport \"./Identity.sol\";\n\n/**\n * @title Delta Contract\n * @dev Delta Contract For Mpc\n */\ncontract HFLContract {\n    IdentityContract public idContract;\n\n    address private owner;\n    enum RoundStatus {\n        Started,\n        Running,\n        Calculating,\n        Aggregating,\n        Finished\n    }\n    mapping(bytes32 => Task) createdTasks;\n    mapping(bytes32 => TaskRound[]) taskRounds;\n    mapping(bytes32 => RoundModelCommitments[]) roundModelCommitments;\n    uint64 private maxWeightCommitmentLength = 10485760;\n    uint64 private maxSSComitmentLength = 256;\n    struct RoundModelCommitments {\n        mapping(address => bytes) weightCommitment;\n        mapping(address => mapping(address => SSData)) ssdata;\n    }\n    struct Task {\n        address creator;\n        string creatorUrl;\n        string dataSet;\n        bytes32 commitment;\n        string taskType;\n        uint64 currentRound;\n    }\n\n    struct Candidate {\n        bytes pk1;\n        bytes pk2;\n    }\n\n    struct TaskRound {\n        uint64 currentRound;\n        uint32 maxSample;\n        uint32 minSample;\n        RoundStatus status;\n        mapping(address => Candidate) candidates;\n        address[] joinedAddrs;\n    }\n\n    struct ExtCallTaskRoundStruct {\n        uint64 currentRound;\n        uint32 maxSample;\n        uint32 minSample;\n        uint8 status;\n        address[] joinedAddrs;\n    }\n\n    struct SSData {\n        bytes seedPiece;\n        bytes seedCommitment;\n        bytes secretKeyPiece;\n        bytes secretKeyMaskCommitment;\n    }\n\n    // event for EVM logging\n    event OwnerSet(address indexed oldOwner, address indexed newOwner);\n    // triggered when task created\n    event TaskCreated(\n        address indexed creator,\n        bytes32 taskId,\n        string dataSet,\n        string creatorUrl,\n        bytes32 commitment,\n        string taskType\n    );\n    // triggered when task developer call startRound\n    event RoundStart(bytes32 taskId, uint64 round);\n\n    // triggered when task developer call startRound\n    event RoundEnd(bytes32 taskId, uint64 round);\n\n    // triggered when task developer call selectCandidates\n    event PartnerSelected(bytes32 taskId, uint64 round, address[] addrs);\n\n    // triggered when task developer call startAggregateUpload\n    event AggregateStarted(bytes32 taskId, uint64 round, address[] addrs);\n\n    // triggered when task developer call startAggregate\n    event CalculateStarted(bytes32 taskId, uint64 round, address[] addrs);\n\n    // triggered when client call uploadWeightCommitment , uploadSeedCommitment ,uploadSkMaskCommitment\n    event ContentUploaded(\n        bytes32 taskId,\n        uint64 round,\n        address sender,\n        address reciver,\n        string contentType,\n        bytes content\n    );\n\n    // modifier to check if caller is owner\n    modifier isOwner() {\n        // If the first argument of 'require' evaluates to 'false', execution terminates and all\n        // changes to the state and to Ether balances are reverted.\n        // This used to consume all gas in old EVM versions, but not anymore.\n        // It is often a good idea to use 'require' to check if functions are called correctly.\n        // As a second argument, you can also provide an explanation about what went wrong.\n        require(msg.sender == owner, \"Caller is not owner\");\n        _;\n    }\n\n    modifier taskExists(bytes32 task_id) {\n        require(createdTasks[task_id].creator != address(0), \"Task not exists\");\n        _;\n    }\n\n    modifier roundExists(bytes32 task_id, uint64 round) {\n        TaskRound[] storage rounds = taskRounds[task_id];\n        require(\n            rounds.length > 1 && rounds.length > round,\n            \"this round does not exist\"\n        );\n        _;\n    }\n\n    modifier roundcmmtExists(bytes32 task_id, uint64 round) {\n        RoundModelCommitments[] storage cmmts = roundModelCommitments[task_id];\n        require(cmmts.length > round, \"The Task Round Must exists\");\n        _;\n    }\n\n    modifier taskOwner(bytes32 task_id) {\n        require(\n            createdTasks[task_id].creator == msg.sender,\n            \"Must called by the task owner\"\n        );\n        _;\n    }\n\n    /**\n     * @dev Set contract deployer as owner\n     */\n    constructor(IdentityContract _addr) {\n        idContract = _addr;\n        owner = msg.sender; // 'msg.sender' is sender of current call, contract deployer for a constructor\n        emit OwnerSet(address(0), owner);\n    }\n\n    /**\n     * @dev get task info data\n     * @param taskId taskId\n     */\n    function getTaskData(bytes32 taskId)\n        public\n        view\n        taskExists(taskId)\n        returns (Task memory task)\n    {\n        task = createdTasks[taskId];\n    }\n\n    /**\n     * @dev called by task developer, notifying all clients that a new learning task has been published\n     * @param dataSet data set name (file/folder name of training data)\n     * @param commitment training code hash (client validation purpose)\n     * @return taskId taskId\n     */\n    function createTask(\n        string calldata dataSet,\n        bytes32 commitment,\n        string calldata taskType\n    ) public payable returns (bytes32 taskId) {\n        bytes32 task_id = keccak256(\n            abi.encode(block.number, msg.sender, dataSet, commitment, taskType)\n        );\n        IdentityContract.Node memory node = idContract.getNodeInfo(msg.sender);\n        createdTasks[task_id] = Task({\n            creatorUrl: node.url,\n            creator: msg.sender,\n            dataSet: dataSet,\n            commitment: commitment,\n            taskType: taskType,\n            currentRound: 0\n        });\n        taskId = task_id;\n        TaskRound[] storage rounds = taskRounds[taskId];\n        rounds.push();\n        emit TaskCreated(\n            msg.sender,\n            task_id,\n            dataSet,\n            node.url,\n            commitment,\n            taskType\n        );\n    }\n\n    /**\n     * @dev called by task developer, notifying all clients that a new computing round is started and open for joining\n     * @param taskId taskId\n     * @param round the round to start\n     */\n    function startRound(\n        bytes32 taskId,\n        uint64 round,\n        uint32 maxSample,\n        uint32 minSample\n    ) public taskExists(taskId) taskOwner(taskId) {\n        TaskRound[] storage rounds = taskRounds[taskId];\n        require(\n            rounds.length == round,\n            \"the round has been already started or the pre round does not exist\"\n        );\n        Task storage task = createdTasks[taskId];\n        task.currentRound = round;\n        while (rounds.length == 0 || rounds.length - 1 < round) {\n            rounds.push();\n        }\n        rounds[round].currentRound = round;\n        rounds[round].maxSample = maxSample;\n        rounds[round].minSample = minSample;\n        rounds[round].status = RoundStatus.Started;\n        RoundModelCommitments[] storage cmmts = roundModelCommitments[taskId];\n        while (cmmts.length == 0 || cmmts.length - 1 < round) {\n            cmmts.push();\n        }\n        emit RoundStart(taskId, round);\n    }\n\n    /**\n     * @dev called by client, join for that round of computation\n     * @param taskId taskId\n     * @param round the round to join\n     * @param pk1 used for secure communication channel establishment\n     * @param pk2 used for mask generation\n     */\n    function joinRound(\n        bytes32 taskId,\n        uint64 round,\n        bytes calldata pk1,\n        bytes calldata pk2\n    ) public taskExists(taskId) roundExists(taskId, round) returns (bool) {\n        TaskRound[] storage rounds = taskRounds[taskId];\n        TaskRound storage thisRound = rounds[rounds.length - 1];\n        require(\n            rounds.length - 1 == round &&\n                thisRound.status == RoundStatus.Started,\n            \"join phase has passed\"\n        );\n        require(\n            thisRound.candidates[msg.sender].pk1.length == 0,\n            \"Cannot join the same round multiple times\"\n        );\n        thisRound.candidates[msg.sender] = Candidate({pk1: pk1, pk2: pk2});\n        thisRound.joinedAddrs.push(msg.sender);\n        return true;\n    }\n\n    /**\n     * @dev called by anyone, get Client Pks\n     * @return candidate  (pk1,pk2)\n     */\n    function getClientPublickeys(\n        bytes32 taskId,\n        uint64 round,\n        address[] calldata candidateAddrs\n    ) public view roundExists(taskId, round) returns (Candidate[] memory) {\n        Candidate[] memory candidates = new Candidate[](candidateAddrs.length);\n        for (uint256 i = 0; i < candidateAddrs.length; i++) {\n            candidates[i] = taskRounds[taskId][round].candidates[\n                candidateAddrs[i]\n            ];\n        }\n        return candidates;\n    }\n\n    /**\n     * @dev getting task round infos\n     * @param taskId taskId\n     * @param round the round to fetch\n     * @return taskround the task round infos\n     */\n    function getTaskRound(bytes32 taskId, uint64 round)\n        public\n        view\n        roundExists(taskId, round)\n        returns (ExtCallTaskRoundStruct memory taskround)\n    {\n        TaskRound storage temp = taskRounds[taskId][round];\n        taskround = ExtCallTaskRoundStruct({\n            currentRound: temp.currentRound,\n            maxSample: temp.maxSample,\n            minSample: temp.minSample,\n            status: (uint8)(temp.status),\n            joinedAddrs: temp.joinedAddrs\n        });\n    }\n\n    /**\n     * @dev called by task developer, randomly choose candidates to be computation nodes\n     * @dev clients now should start secret sharing phase\n     * @param addrs selected client addresses\n     */\n    function selectCandidates(\n        bytes32 taskId,\n        uint64 round,\n        address[] calldata addrs\n    ) public taskOwner(taskId) roundExists(taskId, round) {\n        require(addrs.length > 0, \"Must provide addresses\");\n        TaskRound storage curRound = taskRounds[taskId][round];\n        for (uint256 i = 0; i < addrs.length; i++) {\n            require(\n                curRound.candidates[addrs[i]].pk1.length > 0,\n                \"Candidate must exist\"\n            );\n        }\n        curRound.status = RoundStatus.Running;\n        emit PartnerSelected(taskId, round, addrs);\n    }\n\n    /**\n     * @dev called by task developer, get commitments from blockchain\n     * @dev (Server has to call this method for every clients to get their commiments as the return value couldn't contain mapping type in solidity(damn it))\n     * @param taskId taskId\n     * @param clientaddress the client that publish the commitments\n     * @param round the round of that commitment\n     * @return commitment commitment data\n     */\n    function getResultCommitment(\n        bytes32 taskId,\n        address clientaddress,\n        uint64 round\n    )\n        public\n        view\n        roundExists(taskId, round)\n        roundcmmtExists(taskId, round)\n        returns (bytes memory commitment)\n    {\n        RoundModelCommitments[] storage cmmts = roundModelCommitments[taskId];\n        require(cmmts.length >= round, \"The Task Round Must exists\");\n        RoundModelCommitments storage cmmt = cmmts[round];\n        commitment = cmmt.weightCommitment[clientaddress];\n    }\n\n    /**\n     * @dev called by any participants\n     */\n    function getSecretSharingDatas(\n        bytes32 taskId,\n        uint64 round,\n        address[] calldata senders,\n        address receiver\n    )\n        public\n        view\n        roundExists(taskId, round)\n        roundcmmtExists(taskId, round)\n        returns (SSData[] memory)\n    {\n        RoundModelCommitments[] storage cmmts = roundModelCommitments[taskId];\n        require(cmmts.length >= round, \"The Task Round Must exists\");\n        RoundModelCommitments storage cmmt = cmmts[round];\n        SSData[] memory ssdatas = new SSData[](senders.length);\n        for (uint256 i = 0; i < senders.length; i++) {\n            ssdatas[i] = (cmmt.ssdata[senders[i]][receiver]);\n        }\n        return ssdatas;\n    }\n\n    /**\n     * @dev called by task developer, notifying all participants that the ss and gradient transfer phase has finished\n     * @dev client now should send corresponded ss share pieces to task developer according to the online status given by the task developer\n     * @param taskId taskId\n     * @param round the task round\n     * @param onlineClients clients that has transfered gradient to task developer\n     */\n    function startAggregate(\n        bytes32 taskId,\n        uint64 round,\n        address[] calldata onlineClients\n    ) public taskOwner(taskId) roundExists(taskId, round) {\n        TaskRound storage curRound = taskRounds[taskId][round];\n        require(\n            curRound.status == RoundStatus.Calculating,\n            \"Calculating has not started\"\n        );\n        curRound.status = RoundStatus.Aggregating;\n        for (uint256 i = 0; i < onlineClients.length; i++) {\n            require(\n                curRound.candidates[onlineClients[i]].pk1.length > 0,\n                \"Candidate must exist\"\n            );\n        }\n        emit AggregateStarted(taskId, round, onlineClients);\n    }\n\n    /**\n     * @dev called by task developer, notifying all participants that the secret sharing phase is finished  to transfer masked gradient to task server\n     * @param taskId taskId\n     * @param round the task round\n     */\n    function startCalculate(\n        bytes32 taskId,\n        uint64 round,\n        address[] calldata onlineClients\n    ) public taskOwner(taskId) roundExists(taskId, round) {\n        TaskRound storage curRound = taskRounds[taskId][round];\n        require(\n            curRound.status == RoundStatus.Running,\n            \"This round is not running now\"\n        );\n        curRound.status = RoundStatus.Calculating;\n        emit CalculateStarted(taskId, round, onlineClients);\n    }\n\n    /**\n     * @dev called by task developer, close round\n     * @param taskId taskId\n     * @param round the task round\n     */\n    function endRound(bytes32 taskId, uint64 round)\n        public\n        taskOwner(taskId)\n        roundExists(taskId, round)\n    {\n        TaskRound storage curRound = taskRounds[taskId][round];\n        curRound.status = RoundStatus.Finished;\n        emit RoundEnd(taskId, round);\n    }\n\n    /**\n     * @dev called by client, upload weight commitment\n     * @param taskId taskId\n     * @param round the task round\n     * @param resultCommitment masked model incremental commitment\n     */\n    function uploadResultCommitment(\n        bytes32 taskId,\n        uint64 round,\n        bytes calldata resultCommitment\n    ) public roundExists(taskId, round) {\n        require(\n            resultCommitment.length > 0 &&\n                resultCommitment.length <= maxWeightCommitmentLength,\n            \"commitment length exceeds limit or it is empty\"\n        );\n        TaskRound storage curRound = taskRounds[taskId][round];\n        require(\n            curRound.status == RoundStatus.Calculating,\n            \"not in uploading phase\"\n        );\n        RoundModelCommitments[] storage commitments = roundModelCommitments[\n            taskId\n        ];\n        RoundModelCommitments storage commitment = commitments[round];\n        require(\n            commitment.weightCommitment[msg.sender].length == 0,\n            \"cannot upload weightCommitment multiple times\"\n        );\n        commitment.weightCommitment[msg.sender] = resultCommitment;\n        emit ContentUploaded(\n            taskId,\n            round,\n            msg.sender,\n            address(0),\n            \"WEIGHT\",\n            resultCommitment\n        );\n    }\n\n    /**\n     * @dev called by client, upload secret sharing seed commitment\n     * @param taskId taskId\n     * @param round the task round\n     * @param receivers the receiver addresses\n     * @param seedCommitments seedCommitments[i] is the commitment send to receivers[i]\n     */\n    function uploadSeedCommitment(\n        bytes32 taskId,\n        uint64 round,\n        address[] calldata receivers,\n        bytes[] calldata seedCommitments\n    ) public roundExists(taskId, round) {\n        require(\n            receivers.length == seedCommitments.length,\n            \"receivers length is not equal to seedCommitments length\"\n        );\n        for (uint256 i = 0; i < seedCommitments.length; i++) {\n            require(\n                seedCommitments[i].length > 0 &&\n                    seedCommitments[i].length <= maxSSComitmentLength,\n                \"commitment length exceeds limit or it is empty\"\n            );\n        }\n        TaskRound storage curRound = taskRounds[taskId][round];\n        require(\n            curRound.status == RoundStatus.Running,\n            \"not in secret sharing phase\"\n        );\n        RoundModelCommitments[] storage commitments = roundModelCommitments[\n            taskId\n        ];\n        RoundModelCommitments storage commitment = commitments[round];\n        for (uint256 i = 0; i < seedCommitments.length; i++) {\n            require(\n                commitment\n                    .ssdata[msg.sender][receivers[i]]\n                    .seedCommitment\n                    .length == 0,\n                \"cannot upload seed cmmt multiple times\"\n            );\n            commitment\n            .ssdata[msg.sender][receivers[i]].seedCommitment = seedCommitments[\n                i\n            ];\n            emit ContentUploaded(\n                taskId,\n                round,\n                msg.sender,\n                receivers[i],\n                \"SEEDCMMT\",\n                seedCommitments[i]\n            );\n        }\n    }\n\n    /**\n     * @dev called by client, upload secret sharing seed commitment\n     * @param taskId taskId\n     * @param round the task round\n     * @param senders senders address\n     * @param seeds seeds[i] is the seed send by senders[i]\n     */\n    function uploadSeed(\n        bytes32 taskId,\n        uint64 round,\n        address[] calldata senders,\n        bytes[] calldata seeds\n    ) public roundExists(taskId, round) {\n        require(\n            senders.length == seeds.length,\n            \"senders length is not equal to seeds length\"\n        );\n        for (uint256 i = 0; i < seeds.length; i++) {\n            require(\n                seeds[i].length > 0 && seeds[i].length <= maxSSComitmentLength,\n                \"commitment length exceeds limit or it is empty\"\n            );\n        }\n        TaskRound storage curRound = taskRounds[taskId][round];\n        require(\n            curRound.status == RoundStatus.Aggregating,\n            \"not in upload ss phase\"\n        );\n        RoundModelCommitments[] storage commitments = roundModelCommitments[\n            taskId\n        ];\n        RoundModelCommitments storage commitment = commitments[round];\n        for (uint256 i = 0; i < seeds.length; i++) {\n            require(\n                commitment\n                    .ssdata[senders[i]][msg.sender]\n                    .seedCommitment\n                    .length > 0,\n                \"must upload commitment first\"\n            );\n            require(\n                commitment.ssdata[senders[i]][msg.sender].seedPiece.length == 0,\n                \"cannot upload seed multiple times\"\n            );\n            commitment.ssdata[senders[i]][msg.sender].seedPiece = seeds[i];\n            emit ContentUploaded(\n                taskId,\n                round,\n                senders[i],\n                msg.sender,\n                \"SEED\",\n                seeds[i]\n            );\n        }\n    }\n\n    /**\n     * @dev called by client, upload secret sharing sk commitment\n     * @param taskId taskId\n     * @param round the task round\n     * @param receivers the receiver addresses\n     * @param secretKeyCommitments secretKeyCommitments[i] is the commitment send to receivers[i]\n     */\n    function uploadSecretKeyCommitment(\n        bytes32 taskId,\n        uint64 round,\n        address[] calldata receivers,\n        bytes[] calldata secretKeyCommitments\n    ) public roundExists(taskId, round) {\n        require(\n            receivers.length == secretKeyCommitments.length,\n            \"receivers length is not equal to secretKeyCommitments length\"\n        );\n        for (uint256 i = 0; i < secretKeyCommitments.length; i++) {\n            require(\n                secretKeyCommitments[i].length > 0 &&\n                    secretKeyCommitments[i].length <= maxSSComitmentLength,\n                \"commitment length exceeds limit or it is empty\"\n            );\n        }\n        TaskRound storage curRound = taskRounds[taskId][round];\n        require(\n            curRound.status == RoundStatus.Running,\n            \"not in secret sharing phase\"\n        );\n        RoundModelCommitments[] storage commitments = roundModelCommitments[\n            taskId\n        ];\n        RoundModelCommitments storage commitment = commitments[round];\n        for (uint256 i = 0; i < secretKeyCommitments.length; i++) {\n            require(\n                commitment\n                    .ssdata[msg.sender][receivers[i]]\n                    .secretKeyMaskCommitment\n                    .length == 0,\n                \"cannot upload seed cmmt multiple times\"\n            );\n            commitment\n            .ssdata[msg.sender][receivers[i]]\n                .secretKeyMaskCommitment = secretKeyCommitments[i];\n            emit ContentUploaded(\n                taskId,\n                round,\n                msg.sender,\n                receivers[i],\n                \"SKMASKCMMT\",\n                secretKeyCommitments[i]\n            );\n        }\n    }\n\n    /**\n     * @dev called by client, upload secret sharing sk commitment\n     * @param taskId taskId\n     * @param round the task round\n     * @param senders senders address\n     * @param secretkeyMasks secretkeyMasks[i] is the secretKeyMask send by senders[i]\n     */\n    function uploadSecretkeyMask(\n        bytes32 taskId,\n        uint64 round,\n        address[] calldata senders,\n        bytes[] calldata secretkeyMasks\n    ) public roundExists(taskId, round) {\n        require(\n            senders.length == secretkeyMasks.length,\n            \"senders length is not equal to secretkeyMasks length\"\n        );\n        for (uint256 i = 0; i < secretkeyMasks.length; i++) {\n            require(\n                secretkeyMasks[i].length > 0 &&\n                    secretkeyMasks[i].length <= maxSSComitmentLength,\n                \"commitment length exceeds limit or it is empty\"\n            );\n        }\n        TaskRound storage curRound = taskRounds[taskId][round];\n        require(\n            curRound.status == RoundStatus.Aggregating,\n            \"not in upload ss phase\"\n        );\n        RoundModelCommitments[] storage commitments = roundModelCommitments[\n            taskId\n        ];\n        RoundModelCommitments storage commitment = commitments[round];\n        for (uint256 i = 0; i < secretkeyMasks.length; i++) {\n            require(\n                commitment\n                    .ssdata[senders[i]][msg.sender]\n                    .secretKeyMaskCommitment\n                    .length > 0,\n                \"must upload commitment first\"\n            );\n            require(\n                commitment\n                    .ssdata[senders[i]][msg.sender]\n                    .secretKeyPiece\n                    .length == 0,\n                \"cannot upload seed multiple times\"\n            );\n            commitment\n            .ssdata[senders[i]][msg.sender].secretKeyPiece = secretkeyMasks[i];\n            emit ContentUploaded(\n                taskId,\n                round,\n                senders[i],\n                msg.sender,\n                \"SKMASK\",\n                secretkeyMasks[i]\n            );\n        }\n    }\n\n    function setMaxWeightCommitmentLength(uint64 maxLength) public isOwner {\n        maxWeightCommitmentLength = maxLength;\n    }\n\n    function setMaxSSCommitmentLength(uint64 maxLength) public isOwner {\n        maxSSComitmentLength = maxLength;\n    }\n\n    function getMaxCommitmentsLength()\n        public\n        view\n        returns (uint64 sslength, uint64 weightLength)\n    {\n        sslength = maxSSComitmentLength;\n        weightLength = maxWeightCommitmentLength;\n    }\n\n    /**\n     * @dev Change owner\n     * @param newOwner address of new owner\n     */\n    function changeOwner(address newOwner) public isOwner {\n        emit OwnerSet(owner, newOwner);\n        owner = newOwner;\n    }\n\n    /**\n     * @dev Return owner address\n     * @return address of owner\n     */\n    function getOwner() external view returns (address) {\n        return owner;\n    }\n}\n",
  "sourcePath": "/home/hmiao/workspace/node/contract/contracts/HFLContract.sol",
  "compiler": {
    "name": "solc",
    "version": "0.8.10+commit.fc410830.Emscripten.clang"
  },
  "schemaVersion": "3.4.3",
  "updatedAt": "2021-12-17T07:01:47.414Z",
  "networkType": "ethereum",
  "devdoc": {
    "details": "Delta Contract For Mpc",
    "kind": "dev",
    "methods": {
      "changeOwner(address)": {
        "details": "Change owner",
        "params": {
          "newOwner": "address of new owner"
        }
      },
      "constructor": {
        "details": "Set contract deployer as owner"
      },
      "createTask(string,bytes32,string)": {
        "details": "called by task developer, notifying all clients that a new learning task has been published",
        "params": {
          "commitment": "training code hash (client validation purpose)",
          "dataSet": "data set name (file/folder name of training data)"
        },
        "returns": {
          "taskId": "taskId"
        }
      },
      "endRound(bytes32,uint64)": {
        "details": "called by task developer, close round",
        "params": {
          "round": "the task round",
          "taskId": "taskId"
        }
      },
      "getClientPublickeys(bytes32,uint64,address[])": {
        "details": "called by anyone, get Client Pks",
        "returns": {
          "_0": "candidate  (pk1,pk2)"
        }
      },
      "getOwner()": {
        "details": "Return owner address",
        "returns": {
          "_0": "address of owner"
        }
      },
      "getResultCommitment(bytes32,address,uint64)": {
        "details": "called by task developer, get commitments from blockchain(Server has to call this method for every clients to get their commiments as the return value couldn't contain mapping type in solidity(damn it))",
        "params": {
          "clientaddress": "the client that publish the commitments",
          "round": "the round of that commitment",
          "taskId": "taskId"
        },
        "returns": {
          "commitment": "commitment data"
        }
      },
      "getSecretSharingDatas(bytes32,uint64,address[],address)": {
        "details": "called by any participants"
      },
      "getTaskData(bytes32)": {
        "details": "get task info data",
        "params": {
          "taskId": "taskId"
        }
      },
      "getTaskRound(bytes32,uint64)": {
        "details": "getting task round infos",
        "params": {
          "round": "the round to fetch",
          "taskId": "taskId"
        },
        "returns": {
          "taskround": "the task round infos"
        }
      },
      "joinRound(bytes32,uint64,bytes,bytes)": {
        "details": "called by client, join for that round of computation",
        "params": {
          "pk1": "used for secure communication channel establishment",
          "pk2": "used for mask generation",
          "round": "the round to join",
          "taskId": "taskId"
        }
      },
      "selectCandidates(bytes32,uint64,address[])": {
        "details": "called by task developer, randomly choose candidates to be computation nodesclients now should start secret sharing phase",
        "params": {
          "addrs": "selected client addresses"
        }
      },
      "startAggregate(bytes32,uint64,address[])": {
        "details": "called by task developer, notifying all participants that the ss and gradient transfer phase has finishedclient now should send corresponded ss share pieces to task developer according to the online status given by the task developer",
        "params": {
          "onlineClients": "clients that has transfered gradient to task developer",
          "round": "the task round",
          "taskId": "taskId"
        }
      },
      "startCalculate(bytes32,uint64,address[])": {
        "details": "called by task developer, notifying all participants that the secret sharing phase is finished  to transfer masked gradient to task server",
        "params": {
          "round": "the task round",
          "taskId": "taskId"
        }
      },
      "startRound(bytes32,uint64,uint32,uint32)": {
        "details": "called by task developer, notifying all clients that a new computing round is started and open for joining",
        "params": {
          "round": "the round to start",
          "taskId": "taskId"
        }
      },
      "uploadResultCommitment(bytes32,uint64,bytes)": {
        "details": "called by client, upload weight commitment",
        "params": {
          "resultCommitment": "masked model incremental commitment",
          "round": "the task round",
          "taskId": "taskId"
        }
      },
      "uploadSecretKeyCommitment(bytes32,uint64,address[],bytes[])": {
        "details": "called by client, upload secret sharing sk commitment",
        "params": {
          "receivers": "the receiver addresses",
          "round": "the task round",
          "secretKeyCommitments": "secretKeyCommitments[i] is the commitment send to receivers[i]",
          "taskId": "taskId"
        }
      },
      "uploadSecretkeyMask(bytes32,uint64,address[],bytes[])": {
        "details": "called by client, upload secret sharing sk commitment",
        "params": {
          "round": "the task round",
          "secretkeyMasks": "secretkeyMasks[i] is the secretKeyMask send by senders[i]",
          "senders": "senders address",
          "taskId": "taskId"
        }
      },
      "uploadSeed(bytes32,uint64,address[],bytes[])": {
        "details": "called by client, upload secret sharing seed commitment",
        "params": {
          "round": "the task round",
          "seeds": "seeds[i] is the seed send by senders[i]",
          "senders": "senders address",
          "taskId": "taskId"
        }
      },
      "uploadSeedCommitment(bytes32,uint64,address[],bytes[])": {
        "details": "called by client, upload secret sharing seed commitment",
        "params": {
          "receivers": "the receiver addresses",
          "round": "the task round",
          "seedCommitments": "seedCommitments[i] is the commitment send to receivers[i]",
          "taskId": "taskId"
        }
      }
    },
    "title": "Delta Contract",
    "version": 1
  },
  "userdoc": {
    "kind": "user",
    "methods": {},
    "version": 1
  }
}