{
  "contractName": "IdentityContract",
  "abi": [
    {
      "inputs": [],
      "stateMutability": "nonpayable",
      "type": "constructor"
    },
    {
      "anonymous": false,
      "inputs": [
        {
          "indexed": false,
          "internalType": "address",
          "name": "addr",
          "type": "address"
        },
        {
          "indexed": false,
          "internalType": "string",
          "name": "url",
          "type": "string"
        },
        {
          "indexed": false,
          "internalType": "string",
          "name": "name",
          "type": "string"
        }
      ],
      "name": "NodeJoined",
      "type": "event"
    },
    {
      "anonymous": false,
      "inputs": [
        {
          "indexed": false,
          "internalType": "address",
          "name": "addr",
          "type": "address"
        },
        {
          "indexed": false,
          "internalType": "string",
          "name": "url",
          "type": "string"
        },
        {
          "indexed": false,
          "internalType": "string",
          "name": "name",
          "type": "string"
        }
      ],
      "name": "NodeLeaved",
      "type": "event"
    },
    {
      "anonymous": false,
      "inputs": [
        {
          "indexed": false,
          "internalType": "address",
          "name": "addr",
          "type": "address"
        },
        {
          "indexed": false,
          "internalType": "string",
          "name": "url",
          "type": "string"
        },
        {
          "indexed": false,
          "internalType": "string",
          "name": "name",
          "type": "string"
        }
      ],
      "name": "NodeUpdated",
      "type": "event"
    },
    {
      "anonymous": false,
      "inputs": [
        {
          "indexed": true,
          "internalType": "address",
          "name": "oldOwner",
          "type": "address"
        },
        {
          "indexed": true,
          "internalType": "address",
          "name": "newOwner",
          "type": "address"
        }
      ],
      "name": "OwnerSet",
      "type": "event"
    },
    {
      "inputs": [
        {
          "internalType": "string",
          "name": "url",
          "type": "string"
        },
        {
          "internalType": "string",
          "name": "name",
          "type": "string"
        }
      ],
      "name": "join",
      "outputs": [],
      "stateMutability": "nonpayable",
      "type": "function"
    },
    {
      "inputs": [
        {
          "internalType": "string",
          "name": "url",
          "type": "string"
        }
      ],
      "name": "updateUrl",
      "outputs": [],
      "stateMutability": "nonpayable",
      "type": "function"
    },
    {
      "inputs": [
        {
          "internalType": "string",
          "name": "name",
          "type": "string"
        }
      ],
      "name": "updateName",
      "outputs": [],
      "stateMutability": "nonpayable",
      "type": "function"
    },
    {
      "inputs": [],
      "name": "leave",
      "outputs": [],
      "stateMutability": "nonpayable",
      "type": "function"
    },
    {
      "inputs": [
        {
          "internalType": "address",
          "name": "addr",
          "type": "address"
        }
      ],
      "name": "getNodeInfo",
      "outputs": [
        {
          "components": [
            {
              "internalType": "string",
              "name": "url",
              "type": "string"
            },
            {
              "internalType": "string",
              "name": "name",
              "type": "string"
            }
          ],
          "internalType": "struct IdentityContract.Node",
          "name": "node",
          "type": "tuple"
        }
      ],
      "stateMutability": "view",
      "type": "function",
      "constant": true
    }
  ],
  "bytecode": "0x608060405234801561001057600080fd5b50336000806101000a81548173ffffffffffffffffffffffffffffffffffffffff021916908373ffffffffffffffffffffffffffffffffffffffff16021790555060008054906101000a900473ffffffffffffffffffffffffffffffffffffffff1673ffffffffffffffffffffffffffffffffffffffff16600073ffffffffffffffffffffffffffffffffffffffff167f342827c97908e5e2f71151c08502a66d44b6f758e3ac2f1de95f02eb95f0a73560405160405180910390a361144c806100db6000396000f3fe608060405234801561001057600080fd5b50600436106100575760003560e01c806329803b211461005c578063582115fb1461007857806384da92a7146100a8578063d66d9e19146100c4578063f928edc2146100ce575b600080fd5b61007660048036038101906100719190610e3f565b6100ea565b005b610092600480360381019061008d9190610f1e565b610335565b60405161009f9190611028565b60405180910390f35b6100c260048036038101906100bd919061104a565b61059f565b005b6100cc610760565b005b6100e860048036038101906100e3919061104a565b610a8c565b005b336000600160008373ffffffffffffffffffffffffffffffffffffffff1673ffffffffffffffffffffffffffffffffffffffff168152602001908152602001600020600101805461013a906110c6565b905014801561019757506000600160008373ffffffffffffffffffffffffffffffffffffffff1673ffffffffffffffffffffffffffffffffffffffff1681526020019081526020016000206000018054610193906110c6565b9050145b6101d6576040517f08c379a00000000000000000000000000000000000000000000000000000000081526004016101cd90611155565b60405180910390fd5b604051806040016040528086868080601f016020809104026020016040519081016040528093929190818152602001838380828437600081840152601f19601f82011690508083019250505050505050815260200184848080601f016020809104026020016040519081016040528093929190818152602001838380828437600081840152601f19601f82011690508083019250505050505050815250600160003373ffffffffffffffffffffffffffffffffffffffff1673ffffffffffffffffffffffffffffffffffffffff16815260200190815260200160002060008201518160000190805190602001906102ce929190610c4d565b5060208201518160010190805190602001906102eb929190610c4d565b509050507f26e049335acb952e44de7f01b0fd40f3bd53cfba74c61199e7654c71e2d556c133868686866040516103269594939291906111c0565b60405180910390a15050505050565b61033d610cd3565b816000600160008373ffffffffffffffffffffffffffffffffffffffff1673ffffffffffffffffffffffffffffffffffffffff168152602001908152602001600020600101805461038d906110c6565b90501180156103ea57506000600160008373ffffffffffffffffffffffffffffffffffffffff1673ffffffffffffffffffffffffffffffffffffffff16815260200190815260200160002060000180546103e6906110c6565b9050115b610429576040517f08c379a000000000000000000000000000000000000000000000000000000000815260040161042090611255565b60405180910390fd5b600160008473ffffffffffffffffffffffffffffffffffffffff1673ffffffffffffffffffffffffffffffffffffffff168152602001908152602001600020604051806040016040529081600082018054610483906110c6565b80601f01602080910402602001604051908101604052809291908181526020018280546104af906110c6565b80156104fc5780601f106104d1576101008083540402835291602001916104fc565b820191906000526020600020905b8154815290600101906020018083116104df57829003601f168201915b50505050508152602001600182018054610515906110c6565b80601f0160208091040260200160405190810160405280929190818152602001828054610541906110c6565b801561058e5780601f106105635761010080835404028352916020019161058e565b820191906000526020600020905b81548152906001019060200180831161057157829003601f168201915b505050505081525050915050919050565b336000600160008373ffffffffffffffffffffffffffffffffffffffff1673ffffffffffffffffffffffffffffffffffffffff16815260200190815260200160002060010180546105ef906110c6565b905011801561064c57506000600160008373ffffffffffffffffffffffffffffffffffffffff1673ffffffffffffffffffffffffffffffffffffffff1681526020019081526020016000206000018054610648906110c6565b9050115b61068b576040517f08c379a000000000000000000000000000000000000000000000000000000000815260040161068290611255565b60405180910390fd5b8282600160003373ffffffffffffffffffffffffffffffffffffffff1673ffffffffffffffffffffffffffffffffffffffff16815260200190815260200160002060010191906106dc929190610ced565b507f8dd72b3e159c2446f32a80f24459ad76e9f8fbb74165952a01c27adb16aba72533600160003373ffffffffffffffffffffffffffffffffffffffff1673ffffffffffffffffffffffffffffffffffffffff1681526020019081526020016000206000018585604051610753949392919061130a565b60405180910390a1505050565b336000600160008373ffffffffffffffffffffffffffffffffffffffff1673ffffffffffffffffffffffffffffffffffffffff16815260200190815260200160002060010180546107b0906110c6565b905011801561080d57506000600160008373ffffffffffffffffffffffffffffffffffffffff1673ffffffffffffffffffffffffffffffffffffffff1681526020019081526020016000206000018054610809906110c6565b9050115b61084c576040517f08c379a000000000000000000000000000000000000000000000000000000000815260040161084390611255565b60405180910390fd5b6000600160003373ffffffffffffffffffffffffffffffffffffffff1673ffffffffffffffffffffffffffffffffffffffff168152602001908152602001600020600001805461089b906110c6565b80601f01602080910402602001604051908101604052809291908181526020018280546108c7906110c6565b80156109145780601f106108e957610100808354040283529160200191610914565b820191906000526020600020905b8154815290600101906020018083116108f757829003601f168201915b505050505090506000600160003373ffffffffffffffffffffffffffffffffffffffff1673ffffffffffffffffffffffffffffffffffffffff168152602001908152602001600020600101805461096a906110c6565b80601f0160208091040260200160405190810160405280929190818152602001828054610996906110c6565b80156109e35780601f106109b8576101008083540402835291602001916109e3565b820191906000526020600020905b8154815290600101906020018083116109c657829003601f168201915b50505050509050600160003373ffffffffffffffffffffffffffffffffffffffff1673ffffffffffffffffffffffffffffffffffffffff16815260200190815260200160002060008082016000610a3a9190610d73565b600182016000610a4a9190610d73565b50507fe6cce2c467e7cff22040fe784d410127854a34b9cf37b4c179f62afef96dd07d338383604051610a7f9392919061138a565b60405180910390a1505050565b336000600160008373ffffffffffffffffffffffffffffffffffffffff1673ffffffffffffffffffffffffffffffffffffffff1681526020019081526020016000206001018054610adc906110c6565b9050118015610b3957506000600160008373ffffffffffffffffffffffffffffffffffffffff1673ffffffffffffffffffffffffffffffffffffffff1681526020019081526020016000206000018054610b35906110c6565b9050115b610b78576040517f08c379a0000000000000000000000000000000000000000000000000000000008152600401610b6f90611255565b60405180910390fd5b8282600160003373ffffffffffffffffffffffffffffffffffffffff1673ffffffffffffffffffffffffffffffffffffffff1681526020019081526020016000206000019190610bc9929190610ced565b507f8dd72b3e159c2446f32a80f24459ad76e9f8fbb74165952a01c27adb16aba725338484600160003373ffffffffffffffffffffffffffffffffffffffff1673ffffffffffffffffffffffffffffffffffffffff168152602001908152602001600020600101604051610c4094939291906113cf565b60405180910390a1505050565b828054610c59906110c6565b90600052602060002090601f016020900481019282610c7b5760008555610cc2565b82601f10610c9457805160ff1916838001178555610cc2565b82800160010185558215610cc2579182015b82811115610cc1578251825591602001919060010190610ca6565b5b509050610ccf9190610db3565b5090565b604051806040016040528060608152602001606081525090565b828054610cf9906110c6565b90600052602060002090601f016020900481019282610d1b5760008555610d62565b82601f10610d3457803560ff1916838001178555610d62565b82800160010185558215610d62579182015b82811115610d61578235825591602001919060010190610d46565b5b509050610d6f9190610db3565b5090565b508054610d7f906110c6565b6000825580601f10610d915750610db0565b601f016020900490600052602060002090810190610daf9190610db3565b5b50565b5b80821115610dcc576000816000905550600101610db4565b5090565b600080fd5b600080fd5b600080fd5b600080fd5b600080fd5b60008083601f840112610dff57610dfe610dda565b5b8235905067ffffffffffffffff811115610e1c57610e1b610ddf565b5b602083019150836001820283011115610e3857610e37610de4565b5b9250929050565b60008060008060408587031215610e5957610e58610dd0565b5b600085013567ffffffffffffffff811115610e7757610e76610dd5565b5b610e8387828801610de9565b9450945050602085013567ffffffffffffffff811115610ea657610ea5610dd5565b5b610eb287828801610de9565b925092505092959194509250565b600073ffffffffffffffffffffffffffffffffffffffff82169050919050565b6000610eeb82610ec0565b9050919050565b610efb81610ee0565b8114610f0657600080fd5b50565b600081359050610f1881610ef2565b92915050565b600060208284031215610f3457610f33610dd0565b5b6000610f4284828501610f09565b91505092915050565b600081519050919050565b600082825260208201905092915050565b60005b83811015610f85578082015181840152602081019050610f6a565b83811115610f94576000848401525b50505050565b6000601f19601f8301169050919050565b6000610fb682610f4b565b610fc08185610f56565b9350610fd0818560208601610f67565b610fd981610f9a565b840191505092915050565b600060408301600083015184820360008601526110018282610fab565b9150506020830151848203602086015261101b8282610fab565b9150508091505092915050565b600060208201905081810360008301526110428184610fe4565b905092915050565b6000806020838503121561106157611060610dd0565b5b600083013567ffffffffffffffff81111561107f5761107e610dd5565b5b61108b85828601610de9565b92509250509250929050565b7f4e487b7100000000000000000000000000000000000000000000000000000000600052602260045260246000fd5b600060028204905060018216806110de57607f821691505b602082108114156110f2576110f1611097565b5b50919050565b600082825260208201905092915050565b7f6e6f64652068617320616c7265616479206a6f696e656420696e000000000000600082015250565b600061113f601a836110f8565b915061114a82611109565b602082019050919050565b6000602082019050818103600083015261116e81611132565b9050919050565b61117e81610ee0565b82525050565b82818337600083830152505050565b600061119f83856110f8565b93506111ac838584611184565b6111b583610f9a565b840190509392505050565b60006060820190506111d56000830188611175565b81810360208301526111e8818688611193565b905081810360408301526111fd818486611193565b90509695505050505050565b7f6e6f646520686173206e6f74206a6f696e656420696e00000000000000000000600082015250565b600061123f6016836110f8565b915061124a82611209565b602082019050919050565b6000602082019050818103600083015261126e81611232565b9050919050565b60008190508160005260206000209050919050565b60008154611297816110c6565b6112a181866110f8565b945060018216600081146112bc57600181146112ce57611301565b60ff1983168652602086019350611301565b6112d785611275565b60005b838110156112f9578154818901526001820191506020810190506112da565b808801955050505b50505092915050565b600060608201905061131f6000830187611175565b8181036020830152611331818661128a565b90508181036040830152611346818486611193565b905095945050505050565b600061135c82610f4b565b61136681856110f8565b9350611376818560208601610f67565b61137f81610f9a565b840191505092915050565b600060608201905061139f6000830186611175565b81810360208301526113b18185611351565b905081810360408301526113c58184611351565b9050949350505050565b60006060820190506113e46000830187611175565b81810360208301526113f7818587611193565b9050818103604083015261140b818461128a565b90509594505050505056fea2646970667358221220e159e57717c66b674a0a122f1d2a57dd9436f1995ca7004a2bafa59862939e8864736f6c634300080a0033",
  "immutableReferences": {},
  "source": "// SPDX-License-Identifier: GPL-3.0\n\npragma solidity >=0.7.0 <0.9.0;\n\ncontract IdentityContract {\n    struct Node {\n        string url;\n        string name;\n    }\n\n    address private onwer;\n    mapping(address => Node) nodes;\n\n    // event for EVM logging\n    event OwnerSet(address indexed oldOwner, address indexed newOwner);\n    // triggered when node joined\n    event NodeJoined(address addr, string url, string name);\n    // triggered when node info updated\n    event NodeUpdated(address addr, string url, string name);\n    // triggered when node leaved\n    event NodeLeaved(address addr, string url, string name);\n\n    modifier nodeNotExists(address addr) {\n        require(\n            bytes(nodes[addr].name).length == 0 &&\n                bytes(nodes[addr].url).length == 0,\n            \"node has already joined in\"\n        );\n        _;\n    }\n\n    modifier nodeExists(address addr) {\n        require(\n            bytes(nodes[addr].name).length > 0 &&\n                bytes(nodes[addr].url).length > 0,\n            \"node has not joined in\"\n        );\n        _;\n    }\n\n    constructor() {\n        onwer = msg.sender;\n        emit OwnerSet(address(0), onwer);\n    }\n\n    function join(string calldata url, string calldata name)\n        public\n        nodeNotExists(msg.sender)\n    {\n        nodes[msg.sender] = Node({url: url, name: name});\n        emit NodeJoined(msg.sender, url, name);\n    }\n\n    function updateUrl(string calldata url) public nodeExists(msg.sender) {\n        nodes[msg.sender].url = url;\n        emit NodeUpdated(msg.sender, url, nodes[msg.sender].name);\n    }\n\n    function updateName(string calldata name) public nodeExists(msg.sender) {\n        nodes[msg.sender].name = name;\n        emit NodeUpdated(msg.sender, nodes[msg.sender].url, name);\n    }\n\n    function leave() public nodeExists(msg.sender) {\n        string memory url = nodes[msg.sender].url;\n        string memory name = nodes[msg.sender].name;\n        delete nodes[msg.sender];\n        emit NodeLeaved(msg.sender, url, name);\n    }\n\n    function getNodeInfo(address addr) public view nodeExists(addr) returns (Node memory node) {\n        node = nodes[addr];\n    }\n}\n",
  "sourcePath": "/home/hmiao/workspace/node/contract/contracts/Identity.sol",
  "compiler": {
    "name": "solc",
    "version": "0.8.10+commit.fc410830.Emscripten.clang"
  },
  "schemaVersion": "3.4.3",
  "updatedAt": "2021-11-26T10:42:04.983Z",
  "networkType": "ethereum",
  "devdoc": {
    "kind": "dev",
    "methods": {},
    "version": 1
  },
  "userdoc": {
    "kind": "user",
    "methods": {},
    "version": 1
  }
}